:020000040800F2
:10000000D0060020013A0008093A00080B3A00081F
:100010000D3A00080F3A0008113A000800000000ED
:10002000000000000000000000000000133A00087B
:10003000153A000800000000173A0008193A0008B5
:100040001B3A00081B3A00081B3A00081B3A00083C
:100050001B3A00081B3A00081B3A00081B3A00082C
:100060001B3A00081B3A00081B3A00081B3A00081C
:100070001B3A00081B3A00081B3A00081B3A00080C
:100080001B3A00081B3A00081B3A00081B3A0008FC
:10009000990800081B3A00081B3A00081B3A0008A0
:1000A0001B3A00081B3A00081B3A00081B3A0008DC
:1000B0005F0C00081B3A0008990B00081B3A000867
:1000C0001B3A00081B3A00081B3A00081B3A0008BC
:1000D0001B3A00081B3A00081B3A00081B3A0008AC
:1000E0001B3A00081B3A00081B3A000800000000F9
:1000F0000000000000000000000000000000000000
:1001000000000000000000001B3A00081B3A000835
:100110001B3A00081B3A00081B3A00081B3A00086B
:100120001B3A00081B3A00081B3A00081B3A00085B
:100130001B3A00081B3A00081B3A00081B3A00084B
:10014000130A00081B3A00081B3A00081B3A000873
:1001500000F002F800F092F80AA090E8000C824447
:100160008344AAF10107DA4501D100F087F8AFF224
:10017000090EBAE80F0013F0010F18BFFB1A43F085
:1001800001031847BC530000DC530000103A24BFA1
:1001900078C878C1FAD8520724BF30C830C144BFEC
:1001A00004680C607047000000230024002500262E
:1001B000103A28BF78C1FBD8520728BF30C148BFCA
:1001C0000B6070476E2903F01585702903F05E8679
:1001D000662905F04681652905F04381672905F008
:1001E00040816129AFF3008003681B0A28BF41F0FA
:1001F0008001692903F0C484642903F0C18475294E
:1002000003F0BE846F2903F0E985782903F02A867C
:10021000E92903F08185E42903F07E85F52903F0BF
:100220007B85EF2903F0E685F82903F0298603682A
:10023000DB0928BF41F08001632904F0B1817329F3
:1002400004F0B681E32904F0C181F32904F0C681EA
:10025000002070471FB505F0F8F804F019FA040003
:100260000020002104F00AFF401C606000200021F3
:1002700004F0EEFEE0601FBD10B510BD04F0DAF929
:100280001146FFF7E7FF00F00DFA04F0BBFA03B4E4
:10029000FFF7F2FF03BC04F005FB000008B54FF4C4
:1002A0000060ADF8000048208DF803006946F5486D
:1002B00001F0CAFD4FF48050ADF8000003208DF826
:1002C000020018208DF803006946EE4801F0BCFDDD
:1002D0004FF48050ADF8000048208DF803006946C7
:1002E000E94801F0B1FD4FF40050ADF800000320E3
:1002F0008DF8020018208DF803006946E24801F0ED
:10030000A3FD4FF40070ADF8000003208DF802004B
:1003100018208DF803006946DA4801F095FD4FF486
:100320008060ADF8000004208DF8030003208DF8F4
:1003300002006946D34801F087FD0420ADF80000B3
:1003400003208DF8020018208DF803006946CD487F
:1003500001F07AFD0820ADF8000004208DF80300BC
:1003600003208DF802006946C64801F06DFD40206B
:10037000ADF8000003208DF8020018208DF803006E
:100380006946C04801F060FD08BD10B501F0A8FE47
:100390004FF4803001F0CBFE01F008FFBB4908703C
:1003A0000846007801283AD1102001F01DFA0120FA
:1003B00001F006FA002001F068FF002001F077FF4D
:1003C0004FF4806001F06AFF102001F02FFF4FF41E
:1003D000006001F034FF012001F03AFF00BF3B2034
:1003E00001F0C8FE0028FAD00421880301F012FFB2
:1003F0004FF4E0114FF4803001F0FDFE012001F0D8
:1004000006FF00BF392001F0B5FE0028FAD0022017
:1004100001F02DFF00BF01F033FF0828FBD10121BF
:100420009B4802F084F801210F2002F080F801219E
:100430000D2002F06FF801214FF4904002F06AF8AD
:1004400010BD1FB54FF4E13000900020ADF804005E
:10045000ADF80600ADF80800ADF80C000C20ADF8C2
:100460000A0069468B4802F0D4FF0121894803F055
:100470005CF84FF4E13000900020ADF80400ADF8D6
:100480000600ADF80800ADF80C000C20ADF80A002D
:100490006946814802F0BDFF01217F4803F045F81D
:1004A0001FBD00B587B07D4800F080FC04A800F0B7
:1004B000A1FD00208DF816008DF817008DF81800AA
:1004C0008DF819008DF81A008DF81B008DF81200B8
:1004D0008DF8130003208DF8140002208DF815000C
:1004E0000920ADF8100004A96C4800F078FC002049
:1004F0008DF80A008DF80B0001208DF80C0000200B
:10050000ADF80000ADF80200ADF80400ADF806004B
:10051000ADF8080001208DF80D00684600F0EDFCF4
:10052000012202215D4800F0F8FF07B000BD00B5D0
:1005300087B05B4800F03AFC04A800F05BFD0020A7
:100540008DF816008DF817008DF818008DF8190039
:100550008DF81A008DF81B008DF812008DF813002D
:1005600003208DF8140002208DF815000920ADF845
:10057000100004A94A4800F032FC0E208DF80A0051
:1005800000208DF80B0001208DF80C000020ADF844
:100590000000ADF80200ADF80400ADF80600ADF8BB
:1005A000080001208DF80D00684600F0A6FC01222D
:1005B00002213B4800F0B1FF07B000BD08B54FF481
:1005C000E06000F077FB14208DF8000000208DF82B
:1005D00001008DF8020001208DF80300684600F04C
:1005E0006EFB40208DF8000000208DF801000120F6
:1005F0008DF802008DF80300684600F060FB1C20B7
:100600008DF8000000208DF8010002208DF8020016
:1006100001208DF80300684600F051FB1E208DF884
:10062000000000208DF8010003208DF80200012059
:100630008DF80300684600F042FB08BD014601EB5F
:10064000C1024FF0E0235A6100229A6101221A612F
:1006500000BF4FF0E022106910F0010F02D010F43B
:10066000803FF6D000224FF0E0231A619A61704774
:1006700010B504464FF47A7104FB01F0FFF7DEFF7A
:1006800010BD000000080140000C014000000020E7
:1006900000000206003801400044004000640040B1
:1006A00000680040FFF771FEFFF7F8FDFFF7F9FE65
:1006B000FFF73DFFFFF7C5FEFFF780FF41F61F4143
:1006C00042F2107000F0B4FA40F2CF21642000F042
:1006D0004DFA67E034480078012863D13348007848
:1006E00001285FD1324801683248006800F068FA9A
:1006F0000120314908700121800702F072FB2F4868
:1007000000682F49096888424CD12B48007801289D
:1007100048D10021800702F064FB002026490870C0
:1007200022490870012027490870002023490860E9
:1007300034E024480078012810D1002021490870B5
:10074000012021490870002020490860012120482B
:1007500002F047FB01211F4802F043FB1B480068E1
:100760001D490968884219D117480078012815D118
:1007700000201549087019480068401E1749086094
:100780000120104908700021124802F02AFB0021C4
:100790000F4802F026FB00200C4908600F48006853
:1007A0000028C6DC96E700001800002004000020A6
:1007B000280000202C00002006000020440000201B
:1007C0003C00002007000020050000204000002021
:1007D00000080040000400403000002038000020E5
:1007E00010B5024600200BE000BF274B1B8813F01A
:1007F000800FFAD0135C254C238000F1010398B2DE
:100800008842F1DB10BD0FB410B5B4B037A8019029
:10081000C82102A803F026F902A8019A369903F02C
:100820000FF984B2214602A8FFF7DAFF34B010BCFA
:100830005DF814FB10B5024600200BE000BF144B1E
:100840001B8813F0800FFAD0135C124C238000F148
:10085000010398B28842F1DB10BD0FB410B5B4B0FB
:1008600037A80190C82102A803F0FCF802A8019A59
:10087000369903F0E5F884B2214602A8FFF7DAFFC3
:1008800034B010BC5DF814FB00380140043801405E
:1008900000440040044400402DE9F04786B04FF08A
:1008A000000800240025002001908DF80C008DF830
:1008B0000E008DF817008DF80F0000218DF8101034
:1008C0008DF811108DF812108DF813108DF814108A
:1008D0008DF815108DF8161001AA744800F002FD6D
:1008E0007349019808609DF80F00724908709DF8DF
:1008F000100048709DF8110088709DF81200C870B3
:100900009DF8130008719DF8140048719DF81500BA
:1009100088719DF81600C8710221644800F0FDFE40
:1009200063480068102871D162488178407801EBF3
:10093000002084B2604890FBF4F0604908600846EB
:10094000214602685EA0FFF788FF62A0FFF785FFDF
:100950005849087804F09EFC8246614904F0A4FBE3
:1009600007465648006804F07DFC8146394604F08D
:10097000A5FC064604F05AFC5A490860084601687E
:1009800059A0FFF76AFF4B480179C07801EB0020BE
:1009900085B2204604F07EFC8146284604F07AFCAD
:1009A0008246494604F080FB0746524904F086FC23
:1009B000064604F03BFC5049086008462946026898
:1009C0004EA0FFF74AFF3B4840795249086008466D
:1009D000016851A0FFF741FF36488079534908600C
:1009E0000846016852A0FFF738FF3248C0795549E0
:1009F00008600846016854A0FFF72FFF0120564900
:100A000008705649086000205549088006B0BDE8C6
:100A1000F08700B585B0002000908DF808008DF8B3
:100A20000A008DF813008DF80B0000218DF80C10D2
:100A30008DF80D108DF80E108DF80F108DF8101028
:100A40008DF811108DF812106A46464800F04AFCE5
:100A50001749009808609DF80B00164908709DF82A
:100A60000C0048709DF80D0088709DF80E00C8704D
:100A70009DF80F0008719DF8100048719DF8110055
:100A800088719DF81200C8710221364800F045FEB9
:100A900007480068102806D102202F49087001215C
:100AA000314802F09EF905B000BD0000006400402E
:100AB0001C0000202000002040420F002C000020DD
:100AC000C6B5C2CAB5C4CAFDD6B520256420202546
:100AD000640A0000546573742053746172740000DA
:100AE0000000C84228000020D5BCBFD5B1C82025D1
:100AF000640A000000007A4430000020D6DCC6DA28
:100B0000B8F6CAFDB2CECAFD202564202025640AAD
:100B10000000000034000020BCE4B8F4CAB1BCE41A
:100B2000B2CECAFD2025640A000000003800002073
:100B3000B4CCBCA4B4CECAFDB2CECAFD2025640A92
:100B4000000000003C000020D1D3CAB1CAB1BCE40F
:100B50002025640A00000000180000200400002086
:100B60004400002000680040000800403EB50546F3
:100B70000C46ADF80450ADF800400020ADF806007A
:100B8000ADF8020069460C4801F0FCFD0122114657
:100B9000094802F04CF93EBD10B50121064802F0AB
:100BA000E0FB40B10121044802F0ECFB034800687F
:100BB000401C0249086010BD0008004040000020B1
:100BC00030B589B005460C464020ADF8200018200D
:100BD0008DF8230003208DF8220008A9124801F0A7
:100BE00033F9ADF818504720ADF814000020ADF8E7
:100BF0001A00ADF8160005A90C4801F0C3FD6020ED
:100C0000ADF804000120ADF80600ADF80A40002060
:100C1000ADF80C0001A9054801F0F1FD08210348D9
:100C200002F018FA09B030BD00080140000400408D
:100C30003EB505460C46ADF80450ADF80040002026
:100C4000ADF80600ADF8020069464FF0804001F0B3
:100C500099FD01221146900702F0E9F83EBD10B55A
:100C60000121880702F07DFB80B109A0FFF7F5FDA7
:100C70000121880702F086FB0A480068401C0949E8
:100C800008600846016808A0FFF7E7FD10BD0000F6
:100C9000BDF8C8EBB6A8CAB1C6F732D6D0B6CF0AEF
:100CA0000000000044000020636F756E74596320DB
:100CB00025640A0036490143364A1160704770B511
:100CC000002100230F22C4784CB3324C246804F472
:100CD000E064C4F5E0644FEA1421C1F1040322FA90
:100CE00001F2447804FA03F1847804EA020444EA45
:100CF00001014FEA0111284C0678A155047804F04F
:100D00001F054FF0010404FA05F405784FEA651554
:100D10004FF0E02606EB8505C5F8004109E00478B0
:100D200004F01F050124AC401C4D0678761145F8EF
:100D3000264070BD1A4A0A4002431A4B1A60704797
:100D400041B1194A126842EA00024FF0E023C3F8A9
:100D5000102D07E0144A126822EA00024FF0E02347
:100D6000C3F8102D7047042808D14FF0E02109691D
:100D700041F004014FF0E022116107E04FF0E02163
:100D8000096921F004014FF0E02211617047000071
:100D90000000FA050CED00E000E400E080E100E076
:100DA00080FFFF1F08ED00E010ED00E010B50446E5
:100DB000FF48844209D10121480601F0DFFB0021F0
:100DC0004FF0007001F0DAFB08E00121880601F025
:100DD000D5FB00214FF0806001F0D0FB10BD30B595
:100DE000024600200023146824F0020414601468F2
:100DF00044F00104146000E05B1C546804F001043A
:100E0000012C03D0A3F57F44FF3CF5D1546804F0D6
:100E10000104012C01D000206EE08C79012C04D15A
:100E2000146844F08004146003E0146824F0800423
:100E30001460CC79012C04D1146844F0400414608F
:100E400003E0146824F0400414600C7A012C04D1EF
:100E5000146844F02004146003E0146824F02004B3
:100E600014604C7A012C04D1146844F0100414600E
:100E700003E0146824F0100414608C7A012C04D16F
:100E8000146844F00804146003E0146824F00804B3
:100E90001460CC7A012C04D1146844F0040414606A
:100EA00003E0146824F0040414608C78A407CD785F
:100EB00044EA05640D7944EA05444D7944EA055451
:100EC0000D886D1E2C43D461146824F00104146055
:100ED000002300E05B1C546804F00104012C03D1E2
:100EE000A3F57F44FF3CF5D1546804F00104012CC4
:100EF00001D1002000E0012030BD10B50021837A2F
:100F0000012202FA03F1AB4A126842F00102AA4B35
:100F1000C3F800261A46D2F81C2622EA0102A74B83
:100F20001A60027BB2B9A64A126822EA0102A44BF7
:100F30001A604288C38842EA0343A24A847A42F88C
:100F400034300288838842EA03439E4A847A02EB63
:100F5000C4025360027B012A16D1994A126842EA00
:100F60000102974B1A604288038842EA0343954A7C
:100F7000847A42F83430C288838842EA0343914A33
:100F8000847A02EBC4025360C27A3AB98E4A12687C
:100F900022EA0102884BC3F8042606E08A4A126856
:100FA00042EA0102844BC3F80426028932B9874A17
:100FB000126822EA0102804BC3F814260289012A32
:100FC00006D1824A126842EA01027B4BC3F814261A
:100FD000427B012A06D1794A126842EA0102764B25
:100FE000C3F81C26734A126822F00102724BC3F840
:100FF000002610BD00218171C171017241728172A0
:10100000C1728170C17003210171022141710121FE
:10101000018070476749096841F00101664AC2F8DA
:1010200000166449096843F60E7221EA0201624A19
:10103000C2F800161146D1F8001641EA0021C2F8A4
:1010400000161146D1F8001621F00101C2F8001671
:10105000704721B1026842F48032026003E0026806
:1010600022F4803202607047E1B1026842F08002EF
:1010700002604FF4C272125842F480734FF4C2728D
:1010800013504FF4CA72125842F480734FF4CA726C
:1010900013504FF4D272125842F480734FF4D2724C
:1010A00013501BE0026822F0800202604FF4C2720B
:1010B000125822F480734FF4C27213504FF4CA7264
:1010C000125822F480734FF4CA7213504FF4D27244
:1010D000125822F480734FF4D2721350704710B537
:1010E00002460020936803F08063B3F1806F00D163
:1010F00010E0936803F00063B3F1006F01D10120A9
:1011000008E0936803F08053B3F1805F01D10220BF
:1011100000E0042004287ED002F5C07303EB001326
:101120001B6803F0010402F5C07303EB00131C609D
:101130000B7A7BB94B7A0C6843EA445302F5C074CE
:1011400004EB00142468234302F5C07404EB00147C
:10115000236010E00B7A4C6843EAC4034C7A2343C3
:1011600002F5C07404EB00142468234302F5C07434
:1011700004EB001423608B7A03F00F038B7202F5EB
:10118000C07303EB00135B6823F00F0402F5C07318
:1011900003EB00135C6002F5C07303EB00135B68A4
:1011A0008C7A234302F5C07404EB001463600FE0F3
:1011B0000064004000660040006000401C66004083
:1011C0000C66004040660040046600401466004023
:1011D0008B7B1C064B7B44EA03440B7B44EA0323D2
:1011E000CC7A234302F5C07404EB0014A3608B7C1B
:1011F0001C064B7C44EA03440B7C44EA0323CC7B6F
:10120000234302F5C07404EB0014E36002F5C073DD
:1012100003EB001300E007E01B6843F0010402F554
:10122000C07303EB00131C6010BD10B50246002311
:1012300021B1012907D002290FD109E09068F84CAB
:1012400000EA04030BE09068F64C00EA040306E0B1
:101250009068F54C00EA040301E0002300BF00BFE2
:10126000F24C181BA34216D007DC83B16FF08060EC
:1012700018180ED0022818D111E0B0F5007F10D058
:10128000EB4C001909D0B0F5003F0ED10BE0022362
:101290000DE000230BE0002309E0002307E0012319
:1012A00005E0012303E0012301E0002300BF00BFAC
:1012B000D8B210BD21B1012907D002290FD109E010
:1012C000826842F0800282600AE0826842F4004252
:1012D000826005E0826842F40002826000E000BFA4
:1012E00000BF704710B500F5D87303EB01131B68FE
:1012F00003F004031372137A53B900F5D87303EBA8
:1013000001131B6840F2FF7404EA5353136009E0B1
:1013100000F5D87303EB01131B686FF0604404EA17
:10132000D303536000F5D87303EB01131B6803F07C
:101330000203537200F5D87303EB01135B6803F0EB
:101340000F03937200F5D87303EB01135B681B0A5C
:10135000D37400F5D87303EB01139B68D37200F5C7
:10136000D87303EB01139B681B0A137300F5D87342
:1013700003EB01139B681B0C537300F5D87303EB4D
:1013800001139B681B0E937300F5D87303EB0113D5
:10139000DB68D37300F5D87303EB0113DB681B0A1A
:1013A000137400F5D87303EB0113DB681B0C537443
:1013B00000F5D87303EB0113DB681B0E937421B99E
:1013C000C36843F02003C36003E0036943F02003D4
:1013D000036110BD21B9C26842F02002C26003E07F
:1013E000026942F02002026170470246002019B9EA
:1013F000D36803F0030006E0012903D1136903F069
:10140000030000E00020704710B502460B460020A4
:101410004FF6FF71BBB9146824F0020444F00104D4
:10142000146000E0491E546804F00304012C01D04C
:101430000029F7D1546804F00304012C01D00020E6
:1014400032E0012030E0012B13D1146824F00304B2
:10145000146000E0491E546814F0030F01D0002905
:10146000F8D1546814F0030F01D000201CE00120D3
:101470001AE0022B17D1146824F0010444F002048E
:10148000146000E0491E546804F00304022C01D0EB
:101490000029F7D1546804F00304022C01D0002085
:1014A00002E0012000E0002010BD014600200A6893
:1014B00022F0010242F002020A604A6802F00302CE
:1014C000022A00D10120704701464FF6FF7200202A
:1014D0000B6823F002030B6000E0521E4B6803F020
:1014E0000203022B01D1002AF7D14B6803F002035B
:1014F000022B00D001207047014600208A6902F0CB
:1015000070007047014600208A69100E704701463E
:1015100000208A69C2F3074070471AB143690B4340
:10152000436102E043698B434361704710B5024653
:10153000002011F4700F08D09369C1F31304234203
:1015400001D001202DE000202BE011F0807F08D099
:101550005368C1F31304234201D0012021E000208D
:101560001FE011F0006F08D09368C1F31304234209
:1015700001D0012015E0002013E011F0007F08D019
:10158000D368C1F31304234201D0012009E00020F5
:1015900007E01369C1F31304234201D0012000E0E6
:1015A000002010BD0022234B994202D10023836109
:1015B00011E0C1F3130211F0007F01D0C2600AE014
:1015C00011F0806F01D0026105E011F0006F01D0D1
:1015D000826000E042607047024600200A4201D06B
:1015E000012000E00020704770B504460D4600263B
:1015F0006069284271D0B5F5807F68D01CDC082D69
:1016000041D006DC012D2CD0022D30D0042D7ED10E
:1016100033E0102D3DD0202D41D0402D77D144E036
:10162000030000040003000800000310000100088C
:101630000001FFF77000F030B5F5004F61D009DC14
:10164000B5F5007F4AD0B5F5806F4DD0B5F5006F88
:101650005DD150E0B5F5803F2DD0B5F5003F56D1B6
:101660002FE0A0685549FFF7B7FF064651E0E06854
:101670000321FFF7B1FF06464BE0E0680821FFF7C2
:10168000ABFF064645E0E0681021FFF7A5FF0646E0
:101690003FE020690321FFF79FFF064639E02069FC
:1016A0000821FFF799FF064633E020691021FFF774
:1016B00093FF06462DE060680821FFF78DFF064680
:1016C00027E060681021FFF787FF064621E0A06948
:1016D0000121FFF781FF06461BE01BE0A069022104
:1016E000FFF77AFF064614E0A0690421FFF774FFB4
:1016F00006460EE00BE0A0697021FFF76DFF06467D
:1017000007E060680421FFF767FF064601E0002656
:1017100000BF00E00026304670BDB1F5007F3AD032
:101720000FDC202928D006DC01291CD004291DD07B
:10173000082940D11DE0402921D0B1F5807F3AD160
:1017400026E0B1F5004F31D006DCB1F5806F25D031
:10175000B1F5006F2FD124E0B1F5803F12D0B1F583
:10176000003F28D111E0154A826025E00822C260BE
:1017700022E01022C2601FE0082202611CE0102259
:10178000026119E00822426016E01022426013E074
:101790000422426010E0042242600DE00422426014
:1017A0000AE0002282610422426005E00022826198
:1017B0000422426000E000BF00BF70470101010049
:1017C00001460020FF4A106800F03800084310600E
:1017D0007047FC49096821F00801FA4A1160114676
:1017E0000968014311607047F649096821F010014A
:1017F000F44A116011460968014311607047F248CC
:10180000F0494860F14848607047EF48ED4948604A
:10181000EE4848607047EB48006940F08000E949B5
:1018200008617047E748006940F08000E5490861B9
:1018300070470420E349C96801F00101012901D181
:1018400001200EE0DF49C96811F0040F01D0022029
:1018500007E0DC49C96811F0100F01D0032000E057
:101860000420704700B502460423FFF7E2FF034659
:1018700003E0FFF7DEFF0346521E012B01D1002AD1
:10188000F7D102B90523184600BD30B5044604253A
:101890004FF43020FFF7E6FF0546042D17D1C94865
:1018A000006940F00200C7490861084644610069C8
:1018B00040F0400008614FF43020FFF7D3FF0546A9
:1018C000C048006941F6FD710840BE4908612846DC
:1018D00030BD10B504244FF43020FFF7C3FF044699
:1018E000042C16D1B748006940F00400B5490861DE
:1018F0000846006940F0400008614FF43020FFF7CF
:10190000B1FF0446AF48006941F6FB710840AD499C
:101910000861204610BD00B502460423FFF789FF89
:10192000034603E0FFF785FF0346521E012B01D15A
:10193000002AF7D102B90523184600BD10B50424CA
:101940004FF43020FFF7E7FF0446042C16D19D48E2
:10195000006940F004009B4908610846006940F0B6
:10196000400008614FF43020FFF7D5FF044695484A
:10197000006941F6FB71084092490861204610BD9C
:1019800000209049C96911F0020F01D0012000E048
:101990000020704730B5A5250424FFF7F1FF00B102
:1019A00000254FF43020FFF75DFF0446042C3BD1A7
:1019B000854884498860854888600846006940F009
:1019C000200008610846006940F0400008614FF4BB
:1019D0003020FFF747FF0446042C1CD179480069EA
:1019E00041F6DF710840774908610846006940F018
:1019F00010000861764805804FF40050FFF732FF71
:101A00000446052C10D06F48006941F6EF7108407C
:101A10006C49086108E0052C06D06A48006941F667
:101A2000EF71084067490861204630BDF0B50446B3
:101A30000D4604260027F002FFF714FF0646042E89
:101A400022D16048006940F001005E4908612580AC
:101A5000F002FFF707FF0646042E0ED1A71C280C44
:101A60003880F002FFF7FEFE06465648006941F650
:101A7000FE7108405349086106E05248006941F68A
:101A8000FE7108404F4908613046F0BD70B504460C
:101A90000D460426F002FFF7E5FE0646042E11D19E
:101AA0004848006940F00100464908612580F0027D
:101AB000FFF7D8FE06464348006941F6FE7108402C
:101AC00040490861304670BD70B505460E46042495
:101AD000E002FFF7C7FE0446042C17D13A48394903
:101AE00088603A4888600846006940F01000086144
:101AF0002E80E002FFF7B6FE0446052C06D03148E2
:101B0000006941F6EF7108402E490861204670BD1A
:101B10002DE9F04304464FF6FF763746B046B1460E
:101B20000425E443E6B2C4F30727C4F307484FEAA9
:101B30001469E802FFF796FE0546042D3ED12248BF
:101B400020498860214888600846006940F01000FC
:101B50000861FF2E06D01F4806804FF40050FFF7A3
:101B600081FE0546042D08D1FF2F06D01A480780B4
:101B70004FF40050FFF776FE0546042D09D1B8F169
:101B8000FF0F06D01548A0F80C88E802FFF76AFEA0
:101B90000546042D09D1B9F1FF0F06D00F48A0F872
:101BA0000E98E802FFF75EFE0546052D06D00548B3
:101BB000006941F6EF710840024908612846BDE816
:101BC000F08300000020024023016745AB89EFCD80
:101BD00000F8FF1F08F8FF1F0AF8FF1F00F0FF1FA3
:101BE00030B5054604244FF43020FFF73BFE044691
:101BF000042C41D15F48604988606048886008468D
:101C0000006940F0200008610846006940F040008B
:101C100008614FF43020FFF725FE0446042C22D142
:101C20005548006941F6DF7108405349086108468C
:101C3000006940F0100008611DB100205049088083
:101C400002E0A5204E4908804FF43020FFF70AFE3D
:101C50000446052C10D04848006941F6EF71084051
:101C60004549086108E0052C06D04348006941F663
:101C7000DF71084040490861204630BDF0B5054697
:101C80000E46174604243B483B4988603B48886021
:101C9000E002FFF7E7FD0446042C19D1364800693D
:101CA00040F010003449086147F0F8003043284301
:101CB000344908804FF40050FFF7D4FD0446052C4A
:101CC00006D02D48006941F6EF7108402A490861A5
:101CD0002046F0BD2848C069800870472648006A41
:101CE000704700202449096811F0200F01D001201D
:101CF00000E00020704729B11F4A126902431E4BC1
:101D00001A6104E01C4A126982431B4B1A61704736
:101D100001460020012908D1174AD26912F0010FAB
:101D200001D0012008E0002006E0134AD2680A42F0
:101D300001D0012000E0002070470F49C8607047C3
:101D400004200D49C96801F00101012901D10120D8
:101D50000EE00949C96811F0040F01D0022007E024
:101D60000549C96811F0100F01D0032000E00420DC
:101D7000704700002301674500200240AB89EFCD8A
:101D800000F8FF1F02F8FF1F10B50446CA4884423E
:101D900008D10121042000F0E4FB0021042000F020
:101DA000E0FB46E0C548844208D10121082000F04C
:101DB000D8FB0021082000F0D4FB3AE0C048844260
:101DC00008D10121102000F0CCFB0021102000F0F0
:101DD000C8FB2EE0BB48844208D10121202000F03E
:101DE000C0FB0021202000F0BCFB22E0B64884426A
:101DF00008D10121402000F0B4FB0021402000F078
:101E0000B0FB16E0B148844208D10121802000F0E7
:101E1000A8FB0021802000F0A4FB0AE0AC4884422B
:101E200007D10121801500F09CFB0021A01500F0D6
:101E300098FB10BD10B50121084600F092FB00216F
:101E4000012000F08EFB10BD2DE9F0410246002577
:101E50000026002000230024002791F803C00CF086
:101E60000F0591F803C01CF0100F03D091F802C0C9
:101E70004CEA0505B1F800C01CF0FF0F31D0146822
:101E800000202BE04FF0010C0CFA00F3B1F800C079
:101E90000CEA03069E4220D183004FF00F0C0CFA8F
:101EA00003F7BC4305FA03FC4CEA040491F803C0B1
:101EB000BCF1280F06D14FF0010C0CFA00FCC2F85F
:101EC00014C00AE091F803C0BCF1480F05D14FF0EF
:101ED000010C0CFA00FCC2F810C0401C0828D1D339
:101EE0001460B1F800C0BCF1FF0F34DD546800206D
:101EF0002EE000F1080C4FF0010808FA0CF3B1F8DD
:101F000000C00CEA03069E4221D183004FF00F0C63
:101F10000CFA03F7BC4305FA03FC4CEA040491F8FD
:101F200003C0BCF1280F05D100F1080C08FA0CF829
:101F3000C2F8148091F803C0BCF1480F07D100F13A
:101F4000080C4FF0010808FA0CF8C2F81080401C89
:101F50000828CED35460BDE8F0814FF6FF710180B0
:101F6000022181700421C1707047024600209368ED
:101F70000B4201D0012000E0002070470146886834
:101F800080B2704702460020D3680B4201D0012086
:101F900000E0002070470146C86880B270470161C8
:101FA0007047416170470AB1016100E041617047CB
:101FB000C16070474FF480320A438261816182615F
:101FC00082698269704702460020424B18684FF6CA
:101FD0008073184040EA021008433E4B1860704777
:101FE0003D49C8617047F0B50A460023002400212E
:101FF000002500F00046B6F1004F02D1354EF169E0
:1020000001E0344E7168C0F3034583B200F440161A
:10201000B6F5401F08D121F070612E4E766826F08B
:1020200070662C4F7E6012E000F48016B6F5801FBB
:1020300006D1032606FA05F4A14341F0706106E0DB
:10204000460D360103FA06F6B14341F0706122B144
:10205000460D360103FA06F6314300F00046B6F1AC
:10206000004F02D11B4EF16101E01A4E7160F0BDCC
:1020700030B500228B071C0F0F2303FA04F2154B17
:1020800008338C1053F824309343124C08348D10CD
:1020900044F8253023468C1053F824308C07240F45
:1020A00000FA04F423430B4C08348D1044F8253017
:1020B00030BD0A490860704700080140000C01402B
:1020C000001001400014014000180140001C0140B4
:1020D000002001400000014000002042DC002042BE
:1020E000FA48006840F00100F84908600846406876
:1020F000F7490840F549486008460068F549084036
:10210000F24908600846006820F48020086008460C
:10211000406820F4FE0048600846006820F0A050A7
:1021200008604FF47F0088600020C8627047E7496C
:10213000096821F48031E54A11601146096821F4EB
:1021400080211160B0F5803F03D0B0F5802F0ED113
:1021500006E0DE49096841F48031DC4A116007E09D
:10216000DA49096841F4A021D84A116000E000BFB3
:1021700000BF704710B501460022002300204A111D
:10218000012A02D1D14C236806E0022A02D1CF4CA9
:10219000236A01E0CD4C636A01F01F0201249440E0
:1021A0001C4201D0012000E0002010BD70B50024C9
:1021B0000025002600BF3120FFF7DCFF0646641C27
:1021C000B4F5A06F01D0002EF5D03120FFF7D2FF7B
:1021D00008B1012500E00025284670BD0146002019
:1021E000BA4A106820F0F80040EAC1001060704759
:1021F000B9490860704702460020B44B586820F483
:10220000741042EA01031843B04B58607047B2495A
:102210000866704702460020AC4BD86AAF4B1840A6
:1022200042EA01031843A94BD862704701460020D7
:10223000A64AD06A20F0F0000843D06270470146F9
:102240000020A24AD06A20F470600843D062704730
:10225000A14988667047014600209C4AD06A20F454
:1022600070400843D06270479B4908677047014639
:102270000020964A506820F00300084350607047E1
:102280009248406800F00C007047014600208F4AD9
:10229000506820F0F000084350607047014600206D
:1022A0008A4A506820F4E060084350607047014655
:1022B0000020864A506820F4605040EAC100506017
:1022C000704729B1814A527A0243804B5A7206E024
:1022D0007E4A527AC343DBB21A407C4B5A72704733
:1022E0007F490860704701460020784A506820F412
:1022F00040400843506070477A49086070477A4907
:10230000086070470021794A1170704A82F82010E5
:10231000012802D0042808D103E00121734A11707A
:1023200004E00521714A117000E000BF00BF704752
:102330006F49086070476549096A0143634A116241
:1023400070476C49086070472DE9F0410021002278
:10235000002500230026002400278C46DFF86C812E
:10236000D8F8048008F00C0121B1042907D008290D
:1023700059D109E0DFF88081C0F8008058E0DFF82B
:102380007881C0F8008053E0DFF84081D8F80480FD
:1023900008F47012DFF83481D8F8048008F480352E
:1023A000920C0D2A01D0921C00E0062235B9DFF80C
:1023B0004C8102FB08F8C0F8008033E0DFF80C81A4
:1023C000D8F82C8008F48036DFF80081D8F82C800B
:1023D00008F00F0808F1010446B9DFF81C81B8FBCA
:1023E000F4F808FB02F8C0F800801BE0DFF8DC809E
:1023F000D8F82C80C8F3031808F10107DFF8CC8067
:10240000D8F82C80C8F3032808F1020CDFF8E88024
:10241000B8FBF7F808FB0CF8B8FBF4F808FB02F877
:10242000C0F8008004E0DFF8D080C0F8008000BF72
:1024300000BFDFF89880D8F8048008F0F00109099F
:10244000DFF8BC8018F80130D0F8008028FA03F8D3
:10245000C0F80480DFF87480D8F8048008F4E061E4
:10246000090ADFF89C8018F80130D0F8048028FAB7
:1024700003F8C0F80880DFF85480D8F8048008F426
:102480006051C90ADFF8788018F80130D0F804806C
:1024900028FA03F8C0F80C80DFF83080D8F8048000
:1024A00008F44041890BDFF85C8018F80130D0F85F
:1024B0000C80B8FBF3F8C0F81080BDE8F08119B3C8
:1024C000024A52690243014B5A6122E00010024065
:1024D0000000FFF0FFFFF6FE00004242F0FFFEFFAB
:1024E000D8004242C4054242C80542422010024080
:1024F000800442423C04424200127A0000093D003E
:102500004800002058000020314A52698243304B75
:102510005A61704729B12E4A926902432C4B9A6145
:1025200004E02B4A92698243294B9A61704729B192
:10253000274AD2690243264BDA6104E0244AD26971
:102540008243234BDA61704729B1214A926A0243E0
:102550001F4B9A6204E01E4A926A82431C4B9A62A5
:10256000704729B11A4AD2680243194BDA6004E075
:10257000174AD2688243164BDA60704729B1144A71
:1025800012690243124B1A6104E0114A1269824334
:102590000F4B1A6170470F49086070470E49C864B5
:1025A00070470B49C87170470948406A40F0807015
:1025B00007494862704701460020054A92680A426E
:1025C00001D0012000E00020704701498872704767
:1025D00000100240400442420000424210B504464E
:1025E000FF48844208D10121C014FFF7BAFF00213F
:1025F000E014FFF7B6FFC4E0B4F1804F08D1012129
:102600000846FFF7BBFF00210120FFF7B7FFB8E046
:10261000F448844208D101210220FFF7AFFF0021D6
:102620000220FFF7ABFFACE0EF48844208D1012164
:102630000420FFF7A3FF00210420FFF79FFFA0E085
:10264000EA48844208D101210820FFF797FF0021C2
:102650000820FFF793FF94E0E548844208D1012168
:102660001020FFF78BFF00211020FFF787FF88E085
:10267000E048844208D101212020FFF77FFF00219C
:102680002020FFF77BFF7CE0DB48844208D101215A
:102690004014FFF766FF00216014FFF762FF70E04F
:1026A000D648844209D10121C804FFF75AFF00210E
:1026B0004FF40020FFF755FF63E0D148844209D171
:1026C00001210805FFF74DFF00214FF48010FFF7AF
:1026D00048FF56E0CB48844209D101214805FFF765
:1026E00040FF00214FF40010FFF73BFF49E0C648D0
:1026F000844208D101214020FFF740FF0021402003
:10270000FFF73CFF3DE0C148844208D10121802011
:10271000FFF734FF00218020FFF730FF31E0BC4895
:10272000844208D101218015FFF728FF0021A01560
:10273000FFF724FF25E0B748844209D101210804AE
:10274000FFF70FFF00214FF48030FFF70AFF18E07A
:10275000B148844209D101214804FFF702FF00215A
:102760004FF40030FFF7FDFE0BE0AC48844208D187
:1027700001218804FFF7F5FE00214FF48020FFF7C8
:10278000F0FE10BD00220288954B98420ED09A4B65
:1027900098420BD0B0F1804F08D0924B984205D0B0
:1027A000914B984202D0914B984204D14FF68F73CF
:1027B0001A404B881A438E4B984207D08D4B984253
:1027C00004D04FF6FF431A40CB881A4302808B880F
:1027D00083850B880385824B98420BD0864B9842A9
:1027E00008D08C4B984205D08B4B984202D08B4B33
:1027F000984201D10B7A038601238382704770B51A
:10280000002400220023058C4FF6FE763540058417
:10281000028C8388048B4FF68F752C40B51E2C409C
:102820000D882C43751E2A400D892A434D882A4362
:102830006B4DA8420BD0704DA84208D0754DA842F0
:1028400005D0754DA84202D0744DA84213D14FF661
:10285000F7752A404D892A434FF6FB752A408D882B
:102860002A434FF6FF652B404FF6FF552B408D89CD
:102870002B43CD892B4383800483CD8885860284B6
:1028800070BD70B5002400220023058C4FF6EF7652
:1028900035400584028C8388048B48F6FF752C40F4
:1028A0004FF6FF452C400D882D0644EA15444FF69F
:1028B000DF752A400D892D0542EA15424D882D0508
:1028C00042EA1542464DA84202D04B4DA8421BD1C8
:1028D0004FF67F752A404D892D0542EA15424FF685
:1028E000BF752A408D882D0542EA15424FF6FF3507
:1028F0002B404FF2FF752B408D89AD0443EA154301
:10290000CD89AD0443EA154383800483CD880587D0
:10291000028470BD70B5002400220023058C4FF6A0
:10292000FF6635400584028C8388848B4FF68F7553
:102930002C404FF6FC752C400D882C434FF6FF556C
:102940002A400D892D0642EA15424D882D0642EA9D
:102950001542234DA84202D0274DA8421BD14FF269
:10296000FF752A404D892D0642EA15424FF6FF3584
:102970002A408D882D0642EA15424EF6FF752B40FF
:102980004DF6FF752B408D892D0543EA1543CD8902
:102990002D0543EA154383808483CD88858702848F
:1029A00070BD70B5002200230024058C4EF6FF7622
:1029B00035400584038C8488828B48F6FF752A4055
:1029C0004FF6FF452A400D882D0642EA15424DF686
:1029D000FF752B400D892D0743EA15434D881FE0F5
:1029E000002C01400004004000080040000C0040A2
:1029F000001000400014004000340140004C014031
:102A0000005001400054014000180040001C0040EC
:102A100000200040004001400044014000480140C7
:102A20002D0743EA1543F94DA84202D0F84DA842BC
:102A300006D14BF6FF752C408D89AD0544EA15444F
:102A400084808283CD88A0F84050038470BD828B3F
:102A50004FF2FF331A408283828B0B0642EA134205
:102A600082837047F0B50C461546002200210026EF
:102A7000078C4EF6FF7C07EA0C070784828B018CDB
:102A800027073E0C40F6FF473A402F0642EA17421E
:102A90001F0742EA1742DD4FB8420ED0DC4FB84262
:102AA0000BD0B0F1804F08D0DA4FB84205D0DA4FE2
:102AB000B84202D0D94FB84206D14DF6FF7739401F
:102AC00046F48057394305E047F6FF57394044F450
:102AD0008057394382830184F0BD828B4FF6F373B4
:102AE0001A408283828B0A4382837047F0B50C467A
:102AF0001546002200210026078C4FF6FF6C07EADE
:102B00000C070784828B018C27063E0C4FF60C774E
:102B10003A401F0545EA17473A43BC4FB8420ED02A
:102B2000BB4FB8420BD0B0F1804F08D0B94FB8427C
:102B300005D0B94FB84202D0B84FB84206D14FF6CF
:102B4000FF57394046F48077394305E04FF2FF578D
:102B5000394044F48077394382830184F0BD028B8D
:102B60004FF2FF331A400283028B0B0642EA1342F4
:102B700002837047F0B50C4615460022002100265E
:102B8000078C4FF6EF7C07EA0C070784028B018C59
:102B900027053E0C40F6FF473A401F0742EA17421E
:102BA0002F0642EA1742994FB8420ED0984FB842CA
:102BB0000BD0B0F1804F08D0964FB84205D0964F59
:102BC000B84202D0954FB84206D14FF6DF77394070
:102BD00046F01007394305E04FF65F77394044F07F
:102BE0001007394302830184F0BD028B4FF6F37363
:102BF0001A400283028B0A4302837047F0B50C46E9
:102C0000154600220021068C4FF6FE773E400684D2
:102C1000028B018C4FF60C7632401E0545EA1646B3
:102C200032437A4EB0420ED0794EB0420BD0B0F162
:102C3000804F08D0774EB04205D0774EB04202D0D8
:102C4000764EB04206D14FF6FD76314044F0010693
:102C5000314305E04FF6F576314044F0010631434B
:102C600002830184F0BD70B505460C466748854275
:102C70000ED0674885420BD0B5F1804F08D065482B
:102C8000854205D06448854202D06448854200D11F
:102C900000E000BF208850B92389A28861882846B7
:102CA000FFF7ACFFE1882846FFF79FFF25E020886B
:102CB00004280AD12389A28861882846FFF75AFF91
:102CC000E1882846FFF74BFF17E0208808280AD143
:102CD0002389A28861882846FFF708FFE1882846F3
:102CE000FFF7FBFE09E02389A28861882846FFF7E9
:102CF000B9FEE1882846FFF7AAFE70BD2DE9F04134
:102D000005460C4600260127608808B9022600E027
:102D10000026A088012801D1022700E00127208891
:102D2000A0B92389A28861882846FFF767FFE18858
:102D30002846FFF75AFF23893A4631462846FFF7CF
:102D400019FFE1882846FFF70AFF13E02389A288CC
:102D500061882846FFF70EFFE1882846FFF7FFFE4F
:102D600023893A4631462846FFF748FFE18828463E
:102D7000FFF73BFFBDE8F0810A884B881A438B8838
:102D80001A43CB881A430B891A434B891A438B8900
:102D90001A43A0F8442070474FF6FF71818000214C
:102DA0000180C18041800172704700210180418013
:102DB0008180C180018141818181C1817047002171
:102DC00001804180012181800021C1800181704703
:102DD0000021018041808180C18001814181818108
:102DE000704721B1028842F00102028004E00288AB
:102DF0004FF6FE731A400280704789B1B0F8442044
:102E000042F40042A0F8442010E00000002C0140F1
:102E1000003401400004004000080040000C004065
:102E2000B0F84420C2F30E02A0F84420704710B559
:102E30001AB183890B43838104E08389CC43A4B214
:102E40002340838110BD8182704741EA0203A0F8CC
:102E50004830704710B51AB183890B43838104E071
:102E60008389CC43A4B22340838110BD01894FF6EE
:102E7000F8721140018170470A46002101894FF61E
:102E80008F73194011430181704730B504460D46D8
:102E900029462046FFF7F0FF208940F007002081F7
:102EA00030BD2DE9F04104460D4616461F46602D03
:102EB00006D13B46012231462046FFF75BFE05E086
:102EC0003B46012231462046FFF798FE2946204620
:102ED000FFF7D2FF208940F007002081BDE8F08194
:102EE00030B50C4600210189C9B21D0642EA1545DC
:102EF00025432943018130BD2DE9F04105460E46A9
:102F000017469846002443463A4631462846FFF77E
:102F1000E7FF2C894FF6F8710C4044F007044FF698
:102F20008F710C4044F070042C81BDE8F081F0B545
:102F300004460D4616461F463B4632462946204665
:102F4000FFF7CEFF208940F480402081F0BD01854D
:102F5000828270470A46002101884FF68F7319401C
:102F6000114301807047F0B50C4615461E460021FE
:102F7000002200230189028B038C4FF6F877394039
:102F800021434FF6FC473A4040F201173A434FF6CF
:102F9000DD773B40370545EA17473B430181028314
:102FA0000384F0BD0A460021018B4FF68F73194050
:102FB0001143018370470A460021018B48F6FF73D5
:102FC0001940130641EA1341018370470A46002164
:102FD000818B4FF68F7319401143818370470A46E6
:102FE0000021818B48F6FF731940130641EA134113
:102FF0008183704721B1028842F08002028004E0A0
:1030000002884FF67F731A400280704721B1828890
:1030100042F00402828004E082884FF6FB731A407B
:103020008280704721B1828842F00802828004E0E9
:1030300082884FF6F7731A408280704721B18288E8
:1030400042F00102828004E082884FF6FE731A404B
:10305000828070470A460021018B4FF6F7731940B2
:103060001143018370470A460021018B4FF2FF7321
:103070001940130641EA1341018370470A460021B3
:10308000818B4FF6F77319401143818370470A46CD
:103090000021818B4FF2FF731940130641EA13415F
:1030A000818370470A460021018B4FF6FB7319405C
:1030B0001143018370470A460021018B4FF6FF330D
:1030C0001940130641EA1341018370470A46002163
:1030D000818B4FF6FB7319401143818370470A4679
:1030E0000021818B4FF6FF331940130641EA13414B
:1030F000818370470A460021018B4FF67F73194088
:103100001143018370470A460021018BC1F30E0170
:10311000130641EA1341018370470A460021818B5F
:103120004FF67F7319401143818370470A4600218F
:10313000818BC1F30E01130641EA1341818370476D
:103140000A460021018C4FF6FD731940114301849A
:1031500070470A460021018C4FF6F773194011435E
:10316000018470470A460021018C4FF6DF73194035
:10317000130541EA1341018470470A460021018C7E
:103180004FF67F731940130541EA134101847047DC
:103190000A460021018C4FF6FF531940130641EAFD
:1031A0001341018470470A460021018C4FF2FF73DE
:1031B0001940130641EA1341018470470A46002171
:1031C000018C4DF6FF731940130741EA1341018446
:1031D000704730B5002301248C40A3B2048CDD433A
:1031E000ADB22C400484048C02FA01F5ADB22C433C
:1031F000048430BD30B5002304248C40A3B2048C79
:10320000DD43ADB22C400484048C02FA01F5ADB26A
:103210002C43048430BD70B50346002000241846BA
:10322000183001258D40ACB21D8CE643B6B2354056
:103230001D8409B1082909D100EB6100056825F05A
:10324000700505600568154305600CE00D1FADB203
:1032500000EB6500056825F4E04505600568160685
:1032600045EA1645056070BD21B1028842F00202B0
:10327000028004E002884FF6FD731A400280704716
:1032800021B1028842F00402028004E002884FF675
:10329000FB731A400280704721B1828842F080029D
:1032A000828004E082884FF67F731A4082807047E4
:1032B00002884FF6F7731A40028002880A430280A0
:1032C000704782884FF68F731A40828082880A4343
:1032D0008280704702894FF6F8731A400281028992
:1032E0000A430281704702894FF67F731A400281B8
:1032F00002890A4302817047818470478185704743
:10330000818670470187704781877047A0F8401019
:10331000704702884FF6FF431A40028002880A4332
:10332000028070470146888E70470146088F7047BB
:103330000146888F70470146B1F84000704701464A
:10334000888C70470146088D704702460020138A1A
:103350000B4201D0012000E000207047CA430282E6
:10336000704730B50246002000230024158A05EA84
:103370000103958905EA010413B10CB1012000E0B5
:10338000002030BDCA4302827047000010B50446D9
:10339000FC48844209D101218803FFF7E2F80021AB
:1033A0004FF48040FFF7DDF832E0F748844209D15E
:1033B00001214804FFF7E2F800214FF40030FFF745
:1033C000DDF825E0F148844209D101218804FFF7A6
:1033D000D5F800214FF48020FFF7D0F818E0EC4832
:1033E000844209D10121C804FFF7C8F800214FF435
:1033F0000020FFF7C3F80BE0E648844208D1012122
:103400000805FFF7BBF800214FF48010FFF7B6F86E
:1034100010BD2DE9F04786B005460E460024A246B1
:1034200000BFA1460027B08900B100BF2F462C8AFB
:103430004CF6FF700440F08804432C82AC894EF6B1
:10344000F3100440B088318908437189084304436C
:10345000AC81AC8A4FF6FF400440B0890443AC8293
:1034600001A8FEF771FFC748874202D1DDF810A01E
:1034700001E0DDF80CA0A88910F4004F08D00AEB99
:10348000CA0000EB0A1031684900B0FBF1F807E010
:103490000AEBCA0000EB0A1031688900B0FBF1F8B2
:1034A0006420B8FBF0F004012009642101FB1089BD
:1034B000A88910F4004F08D0322000EBC900B0FBFF
:1034C000F1F000F00700044308E0322000EB09109F
:1034D0006421B0FBF1F000F00F0004432C8106B032
:1034E000BDE8F0874FF41651016000218180C18052
:1034F00001810C21418100218181704710B5024674
:103500000020108A4FF2FF0318400B884C88234399
:103510008C882343CC8823431843108210BD00219C
:10352000018041808180C180704721B1828942F44D
:103530000052828104E082894DF6FF731A40828135
:103540007047F0B503460024002600250020A1F5B1
:1035500010676A3F00D100BF1846C1F3421401F062
:103560001F06012707FA06F5012C01D10C3004E0F3
:10357000022C01D1103000E014301AB107682F433B
:10358000076002E00768AF430760F0BD10B51AB1ED
:10359000838A0B43838204E0838ACC43A4B2234012
:1035A000838210BD028A4FF6F0731A400282028AAB
:1035B0000A430282704782894FF2FF731A40828168
:1035C00082890A438281704721B1828942F00202D6
:1035D000828104E082894FF6FD731A408281704730
:1035E000028A4FF6DF731A400282028A0A4302827D
:1035F000704721B1028A42F48042028204E0028ACA
:103600004BF6FF731A4002827047C1F308028280B2
:10361000704701468888C0F308007047818941F0EF
:10362000010181817047028BD2B20283028B42EA90
:10363000012202837047028B02F47F420283028BD5
:103640000A430283704721B1828A42F020028282BB
:1036500004E0828A4FF6DF731A408282704721B1FC
:10366000828A42F01002828204E0828A4FF6EF736F
:103670001A408282704721B1828A42F00802828217
:1036800004E0828A4FF6F7731A408282704721B1B4
:10369000828942F40042828103E08289C2F30E02F1
:1036A0008281704721B1828A42F40062828204E002
:1036B000828A4FF2FF731A4082827047828A4FF6E5
:1036C000FB731A408282828A0A438282704721B148
:1036D000828A42F00202828204E0828A4FF6FD73FF
:1036E0001A408282704702460020B1F5007F00D167
:1036F00000BF13880B4201D0012000E0002070477A
:1037000001F40072B2F5007F00D100BFCA4302800D
:10371000704770B502460024002300250020A1F563
:1037200010666A3E00D100BFC1F3421501F01F03CD
:10373000012606FA03F3012D02D19689334006E0F3
:10374000022D02D1168A334001E0968A33400C12D2
:10375000012606FA04F41688344013B10CB1012096
:1037600000E0002070BD10B500220023A1F5106418
:103770006A3C00D100BF0A1201249440A3B2DC438A
:10378000048010BD00380140004400400048004063
:10379000004C004000500040002100208D4A12687B
:1037A00042F480328B4B1A6000BF8A4A126802F4DE
:1037B0000030491C10B9B1F5A06FF6D1854A1268E6
:1037C00012F4003F01D0012000E0002001285AD16E
:1037D000814A126842F010027F4B1A601A46126842
:1037E00022F003021A601A46126842F002021A60BE
:1037F000784A5268774B5A601A4652685A601A469D
:10380000526842F480625A601A46D26A734B1A4078
:10381000704BDA621A46D26A714B1A436D4BDA6208
:103820001A46126842F080621A6000BF694A126844
:1038300012F0006FFAD0674A526822F47C12654B8E
:103840005A601A46526842F4E8125A601A461268E0
:1038500042F080721A6000BF5E4A126812F0007F68
:10386000FAD05C4A526822F003025A4B5A601A4658
:10387000526842F002025A6000BF564A526802F093
:103880000C02082AF9D1704710B5FFF785FF10BD6B
:1038900010B55048006840F001004E4908600846E5
:1038A0004068504908404B494860084600684E4906
:1038B0000840484908600846006820F480200860F5
:1038C0000846406820F4FE0048600846006820F082
:1038D000A05008604FF47F0088600020C862FFF7A6
:1038E000D3FF4FF000604149086010BDF0B50021E2
:1038F000002000230024002200250026354F7F6889
:1039000007F00C0121B1042908D008294BD10BE0A4
:10391000374FDFF8E0C0CCF800704AE0344FDFF8F2
:10392000D4C0CCF8007044E02A4F7F6807F47010D0
:10393000284F7F6807F48033800C0D2801D0801C4D
:1039400000E0062033B92C4F4743DFF8A8C0CCF87D
:10395000007027E01F4FFF6A07F480341D4FFF6A95
:1039600007F00F077A1C44B9214FB7FBF2F7474322
:10397000DFF880C0CCF8007014E0164FFF6AC7F380
:1039800003177D1C134FFF6AC7F30327BE1C184F94
:10399000B7FBF5F77743B7FBF2F74743DFF854C0BF
:1039A000CCF8007005E0124FDFF848C0CCF800708A
:1039B00000BF00BF074F7F68C7F30317DFF83CC0A5
:1039C0001CF807100B4F3F68CF40DFF828C0CCF839
:1039D0000070F0BD001002400020024000F0FEFF29
:1039E000440601000000FFF0FFFFF6FE08ED00E0D6
:1039F00000127A005C00002000093D0060000020F9
:103A00000948804709480047FEE7FEE7FEE7FEE772
:103A1000FEE7FEE7FEE7FEE7FEE7FEE704480549AE
:103A2000054A064B70470000913800085101000814
:103A3000D0000020D0060020D0020020D0020020BC
:103A40001CB50C46064B7B4469460090204600F0AE
:103A5000ECF804460020694600F0FAF820461CBD48
:103A6000070200004FF0000200B513469446964648
:103A7000203922BFA0E80C50A0E80C50B1F1200181
:103A8000BFF4F7AF090728BFA0E80C5048BF0CC02F
:103A90005DF804EB890028BF40F8042B08BF70478D
:103AA00048BF20F8022B11F0804F18BF00F8012BFF
:103AB000704770477047704770B504468569006865
:103AC0003026C10600D42026C00708D070BDD4E936
:103AD000012130469047206A00F1010020626D1EEE
:103AE000F5D570BD70B5044685690068C00708D17A
:103AF00070BDD4E9012120209047206A00F1010027
:103B000020626D1EF5D570BD09684A0501D540B229
:103B10007047C905FCD500B2704709684A0501D550
:103B2000C0B27047C905FCD580B2704770B5054674
:103B30000C46012A05D02868800600D5EA690023D2
:103B400002E0012305E05B1C934202D2E05C002806
:103B5000F9D1A869E618C01AA861286A1844286231
:103B60002846FFF7A9FF04E0D5E9012114F8010B6D
:103B70009047B442F8D32846FFF7B4FF70BD000069
:103B80002DE9F0418046002610687529414615A5AB
:103B900012D0FFF7B9FF002803DAC0F1000012A528
:103BA00008E0D8F800108A0701D510A502E04907FF
:103BB00004D50FA5012601E0FFF7AFFF002408F1AF
:103BC000240704E000F02EFD30313955641C002834
:103BD000F8D133462A4621464046BDE8F04100F080
:103BE00074BA0000000000002D0000002B0000004F
:103BF0002000000011680268006A530501D50870B2
:103C00000BE0D30501D5088007E0130603D5C217E2
:103C1000C1E9000201E0520608600120704700007F
:103C200001694A1C02610878704700B58FB0CDE980
:103C300001310021059105497944CDE90310114670
:103C4000684600F02FF90FB000BD0000E5FFFFFF50
:103C50000A6802F8010B0A60704700002DE9FF5F57
:103C600004468A461546DFF8AC80F8440027D8E9B8
:103C700000103E46CDE9001011E03AF816106A46F1
:103C800002A800F0AFFC411C07D02168890603D5CB
:103C9000E269391891420ED8074406F101062068FE
:103CA000800602D5E069B84205DDAE42E5DB3AF8B0
:103CB00016000028E1D1A069C01BA0612046FFF7D3
:103CC000FBFED8E90010CDE90010002016E03AF81C
:103CD00018106A4602A800F085FC8146401C0BD0F3
:103CE00000250DF1080B05E0D4E901211BF80500C2
:103CF00090476D1C4D45F7D308F10100B042804656
:103D0000E5DB206A384420622046FFF7EBFEBDE881
:103D1000FF9F0000FA1700002DE9F0418046D21DF8
:103D200022F007020026D2E90002F52914A512D0DC
:103D3000002A06DA0023D0EB030063EB020211A590
:103D400008E0D8F800108B0701D50FA502E049075D
:103D500001D50EA501261146002408F1240704E030
:103D600000F06EF930323A55641C50EA0102F7D186
:103D700033462A4621464046BDE8F04100F0A5B949
:103D8000000000002D0000002B00000020000000BB
:103D900030B4002100F124040CE002F0070505F125
:103DA00030054FEAD20242EA4372655401F1010143
:103DB0004FEAD30352EA0305EFD10468002310A2AF
:103DC000250708D504F020040C4304D0C46901235E
:103DD0000CA2641EC46130BC00F077B910B5044673
:103DE00021461068FFF799FE02462046BDE81040C4
:103DF0000023CDE7D21D22F00701D1E90023C7E758
:103E00000000000030000000F0B40F460168090512
:103E100002D5234C7C4402E0214C7C440E3400212A
:103E200000F124050BE002F00F064FEA1212A65D26
:103E300042EA03724FEA13136E5401F1010152EA90
:103E40000306F0D1224604680023240704D5702F0E
:103E500005D009B111320223F0BC00F036B910329E
:103E60000123F9E770B504460D4621461068FFF7B7
:103E700054FE024629462046BDE870400023C3E7B1
:103E8000D21D22F00703D3E90023BDE703681268BF
:103E900043F0200303600823C3610023B4E700005C
:103EA000581600002DE9F05F4FF0000B05468946DB
:103EB0004FF0010AC0F820B02846E968884798B357
:103EC000252806D0D5E901219047286A401C2862A0
:103ED000F2E75A4F00267F442846E96888472028A1
:103EE000044608DB312C06D207EB040010F8200C46
:103EF00008B10643F0E7B00701D526F00406C5F87F
:103F00001CB00027C5F818B02A2C0ED05246A4F1D8
:103F100030010A292ED2BAF1000F2BD0924605EBC0
:103F20008708C8F818101AE084E059F8041B2846DE
:103F300005EB87029161E9688847012F04461BD190
:103F4000E869002823DA26F0200620E0D8F81800D7
:103F500000EB800004EB40003038C8F81800284619
:103F6000E9688847A0F1300104460A2902D2BAF173
:103F7000000FEBD1012F0AD02E2C08D12846E9687A
:103F800088477F1C0446022F46F02006BCDBA86948
:103F9000002803DA404246F00106A861F00701D08C
:103FA00026F010066C2C0AD0682C08D04C2C34D08B
:103FB0006A2C32D0742C30D07A2C2ED015E0E968DF
:103FC000274628468847B842044609D180206C2FEE
:103FD00000D0C000E968064328468847044604E04C
:103FE00040206C2F00D0800006431CB3A4F1410098
:103FF000192802D8203446F400664A46214628464D
:104000002E604E46FCF7DEF890B101280DD0F61D6B
:1040100026F0070000F108094EE74C2C5846D9D08D
:1040200080206A2CD6D00020D4E706F1040943E7AB
:10403000204647E7286ABDE8F09F0000BE15000053
:1040400030B5B0F10A024FEA900E71F100034EEA6A
:10405000817EB0EB0E0061EB91014FEA101E4EEA3B
:10406000017E10EB0E0041EB11114FEA102E4EEACB
:10407000016E10EB0E0041EB11214FEA104E4EEA9B
:10408000014E10EB0E0041EB1141401841F10001CF
:104090004FEAD00040EA41704FEAD10110EB8005B1
:1040A0004FEA810444EA907444EB01046D1944EB37
:1040B0000404521BA3414FF0000348BF0A3200D54D
:1040C00030BD401C41F1000130BD2DE9F0470D46E7
:1040D00004469246994600F124080168880604D5F2
:1040E000E06921F01001216000E001200027A842D2
:1040F00001DDA0EB0507A16907EB050202EB030058
:10410000A1EB0000A0612068C00602D42046FFF7A2
:10411000D3FC002608E0D4E901211AF806009047F4
:10412000206A401C761C20624E45F4DB2068C006E5
:104130000AD52046FFF7C0FC06E0D4E90121302073
:104140009047206A401C2062381EA7F10107F4DC6A
:1041500007E0D4E9012118F805009047206A401CC7
:104160002062281EA5F10105F3DC2046FFF7BAFC0A
:1041700021680220090600D40120BDE8F0877047BD
:104180002DE9FF4F0C461E464FF0FF3789B0D2E9AC
:104190000001DDF8588006908946C1F30A5505B93B
:1041A0003D46002108464FF00000B9F1000F00F431
:1041B000400005DA00EB80004FF4400101EA5000B6
:1041C0004FEA905ABAF1010F00DDBA46069850EA5C
:1041D00049002CD044F61050A5F2FF354543CAF1F2
:1041E000000008902F14B8F1000F39D07542089ADA
:1041F000291E00DC524600DA694203A800F08CFA5E
:104200000699484600F055FB8DE80700A0F50050E0
:104210001F3800900398002D25DD42F21F01524601
:10422000084403A90390684600F0B4FD24E0B8F107
:10423000010F4FF0000001D1F24307E0302101E00F
:104240002154401CB042FBDB3046002200212154A7
:104250000999C1F80880C1E900200DB0BDE8F08FD0
:10426000BD1B6D1CC3E7A0F5005052461F3803A9C3
:104270000390684600F0A2FD8DE807000004000CE2
:1042800003D04FF0FF30410800E01046B8F1000FB6
:1042900003D00022009215461FE0751E06D4FFF7DA
:1042A000CFFE02F1300262556D1EF8D5B3460122F1
:1042B000084302D000227F1C04E02078302801D17E
:1042C00000227F1E002A07978DD01DE0112D07DAEE
:1042D000FFF7B6FE303262556D1C50EA0102F5D18F
:1042E00008430FD10021681E05E0235C625C635423
:1042F000491C2254401E8142F7DBAB46A81B401EDE
:10430000079001E0009848B1002004F80B000998DC
:10431000079AC0F80880C0E9002B9EE711264FF0ED
:10432000000860E72DE9F04F88460446D21D22F0D0
:10433000070191B0D1E90001CDE90C0100F074FE54
:1043400002460D98C10F4FF02D0006D121682B2099
:104350008B0702D4202000EAC100032A834601D043
:10436000072A05DB03464146204600F097F90AE19B
:104370002068800601D5E76900E006271120B8F122
:10438000650F06D0B8F1660F11D0B8F1670F67D18D
:1043900028E00023112F009300DA781C03460CAAB2
:1043A00001A909A8FFF7ECFE00267D1C3FE00123D0
:1043B0004FF000490CAA01A909A800933B46FFF75A
:1043C000DFFEDDE90A50002620B9099907F1010056
:1043D00001EB0005781B02D47D1CC0F1FF36A5EB74
:1043E000070A3DE0012F00DA01270023112F009377
:1043F00000DC384603460CAA01A909A8FFF7C0FE55
:1044000020683D46002600070BD40A98A84200DA2F
:10441000054601A8012D04DD411911F8011C3029C0
:1044200009D00998B84202DA10F1040F05DA4FF00A
:10443000010A099813E06D1EECE7002802DC2D1A32
:10444000064405E0401CA84202DD099D05F1010576
:104450000998A0EB060000F1010A4FF000408146E8
:104460002068000703D4AA4501DB4FF0FF3A002083
:10447000B9F1004F0DF13F078DF83F0024D04FF008
:1044800002082B20B9F1000F00900BDA2D20C9F1A2
:104490000009009006E0484600F0C4F8303181463B
:1044A00007F8011DB8F10001A8F10108F3DCB9F12A
:1044B000000FF0D1009807F8010D2168452009058B
:1044C00000D4652007F8010D0EA8A0EB070000F14D
:1044D00007085FEA0B0000D0012000EB050101EBAB
:1044E000EA7101EB0800A169A1EB0000A0F1010055
:1044F000A0612068C00602D42046FFF7DDFA5FEA1B
:104500000B0006D0D4E901219047206A00F1010098
:1045100020622068C00621D52046FFF7CDFA1DE0B5
:10452000002E05DB0A98B04202DD01A8805D00E0A4
:104530003020D4E901219047206A761C401CBAF152
:10454000010A20620AD100F0A3F8C0680168405C4B
:10455000D4E901219047206A401C2062281EA5F161
:104560000105DDDC07E0D4E9012117F8010B9047D4
:10457000206A401C2062B8F10001A8F10108F2DCB9
:104580002046FFF7AFFA022011B067E610B5436985
:1045900013B1AFF3008001E0FFF7C8FA012010BDAE
:1045A000126800F124010A7000224A700122EDE72E
:1045B00011684FF0FF32E9E710B5436913B1AFF36B
:1045C000008001E0FFF74AFB012010BD126800F1F6
:1045D000240182840022C2840122EDE711684FF099
:1045E000FF32E9E770B505460C46164600F048F87C
:1045F000036893F80101012806D0FF2C0FD8185D3D
:1046000068B101202C7070BDD3F8070132462146F5
:1046100003442846BDE8704003F2071318474FF0E3
:10462000FF3070BD4FF00A01B0FBF1F202FB110147
:1046300010467047754600F0EBF8AE460500694637
:10464000534620F00700854618B020B5FFF7E6F97D
:10465000BDE820404FF000064FF000074FF0000883
:104660004FF0000B21F00701AC46ACE8C009ACE804
:10467000C009ACE8C009ACE8C0098D46704700002D
:1046800010B500F005F8001D10BD00BFF1090000D5
:1046900001487047704700BF900000202DE9F041AD
:1046A00004461F4603260168072A01F4006003DB65
:1046B00015A520B915A502E015A500B915A521F08D
:1046C00010002060A069C01EA0610FB1401EA06153
:1046D0002046FFF7F1F94FB1D4E901213846904760
:1046E000206A401C2062C01C206206E0206AFAE7B3
:1046F000D4E9012115F8010B9047761EF8D2204627
:10470000FFF7F0F9BDE8F0814E414E006E616E009A
:10471000494E4600696E66002DE9F047814616460F
:104720008AB037487844D0E9002380680092CDE908
:104730000130334878440C38D0E9022300690392F1
:10474000CDE9043041F69B334FF0370001EB030213
:10475000194492FBF0F591FBF0F2A5F1800500FB06
:1047600012141B3C02D56442012000E00020DFF857
:1047700090A080460027FA44AAF1CE0A0DE0E00797
:1047800009D03246684607EB47010AEB810100F089
:1047900015FB8DE8070064107F1C002CEFD1184F2B
:1047A0007F44BC3F17E0E80713D007EB04100DF17E
:1047B000180A90E80E00AAE80E00C068F04201D185
:1047C00098190890324606A903A800F0F7FA03AB3F
:1047D00007C36D10641C002DE5D132466946B8F15F
:1047E000000F03A802D000F0D5FA01E000F0E6FACD
:1047F000C9E90001C9F808200AB0BDE8F087000047
:10480000000E00000446AFF300802046FBF73FFD9A
:1048100000487047700000204FF0013C50F8042B16
:1048200051F8043B9A4221D1A2EB0C03934313EAC3
:10483000CC1317D150F8042B51F8043B9A4215D1F0
:10484000A2EB0C03934313EACC130BD150F8042BC7
:1048500051F8043B9A4209D1A2EB0C03934313EAAB
:10486000CC13DBD04FF00000704700BFD01A01BA64
:10487000B1FA81F101F0180122FA01F0CB40C1F147
:104880002001DBB2C0B2C01A2CFA01F3D11A914355
:1048900011EAC311E6D1704701487047704700BF65
:1048A0007400002001491820ABBEFEE7260002007C
:1048B00070475FEA400C08BF91F0000F4FEA8C236D
:1048C0004FEAC12243EA51514FEA1C5018BF00F58C
:1048D000F0404FEA300018BF41F000415FEA6C5CE5
:1048E00000F02980BCF1FF3F08BF40F080407047D6
:1048F000130C06BF12044FF0100C4FF0000C130EF7
:1049000004BF12020CF1080C130F04BF12010CF1CA
:10491000040C930F04BF92000CF1020CD30F04BFE0
:1049200052000CF1010C11464FF00002A0F11F00E3
:10493000A0EB0C00704711F0004F08BF704731F03A
:1049400000413FF4D5AF0B0C06BF09044FF0100C2B
:104950004FF0000C0B0E04BF09020CF1080C0B0FFA
:1049600004BF09010CF1040C8B0F04BF89000CF18A
:10497000020CCB0F04BF49000CF1010CCCF1200359
:10498000A0EB0C0022FA03F302FA0CF241EA030155
:1049900000F10100704720F07F4C80EA030023F013
:1049A0007F47ACEB070303F57C5300F0004003F1B5
:1049B000FF032DE980494FEA154B09B44FEA144330
:1049C00025EA0B4E24EA03480FF2042606EB1327D0
:1049D00049083E785FEA320203FB0667C7F5000725
:1049E00007FB06F64FEA54374FEAD64606F10206B1
:1049F00007FB066CCCF1005C4FEA1C472CEA074C25
:104A000007FB06F40CFB06F504EB15464FEA961679
:104A100034BF00204FF000404FEAD13706FB07FCBF
:104A20004FEA1C4C0CFB0BF7D21B03FB0CF761EBA2
:104A300007010CFB0EF7B0EB074072EB17420CFBC3
:104A400008F734BFA2EB0742B2EB074261EB174114
:104A50004FEA0C444FEA910706FB07FC4FEA1C4C57
:104A60000CFB0BF7B0EBC74072EB573203FB0CF7B4
:104A700034BFA2EBC742B2EBC74261EB57310CFB2C
:104A80000EF7B0EBC70072EB57720CFB08F734BFA0
:104A9000A2EBC702B2EBC70261EB5771039F4FEA6B
:104AA000816141EA921104EBCC044FEAD1374FEA1D
:104AB000826206FB07FC42EA90124FEA80604FEAEE
:104AC0001C4C0CFB0BF7D21B03FB0CF761EB070133
:104AD0000CFB0EF7B0EB074072EB17420CFB08F72C
:104AE00034BFA2EB0742B2EB074261EB17414FEA3A
:104AF0008C554FEA910704EB9C2406FB07FC4FEA18
:104B00001C4C0CFB0BF7B0EBC74072EB573203FBAE
:104B10000CF734BFA2EBC742B2EBC74261EB57318F
:104B20000CFB0EF7B0EBC70072EB57720CFB08F7EB
:104B300034BFA2EBC702B2EBC70261EB577115EBB2
:104B40004C254FEA816141EA92114FEA82624FEAB5
:104B5000D13742EA901206FB07FC44F100044FEA09
:104B600080604FEA1C4C0CFB0BF7D21B03FB0CF7CD
:104B700061EB07010CFB0EF7B0EB074072EB17423D
:104B80000CFB08F734BFA2EB0742B2EB074261EB24
:104B9000174115EB1C154FEA813141EA92414FEA6A
:104BA000823242EA90424FEA80304FEA0C7644F17A
:104BB000000448EA03434EEA0B484FF0000EB2EB04
:104BC000080C71EB030724BF624639464EEB0E0E0C
:104BD0004FF0000B0018524149414BEB0B0BB2EB6D
:104BE000080C71EB03077BF1000B24BF62463946CA
:104BF0004EEB0E0E4FF0000B0018524149414BEBAB
:104C00000B0BB2EB080C71EB03077BF1000B24BF1D
:104C1000624639464EEB0E0E51EA020718BF46F0C7
:104C2000010616EB0E7655F1000254F1000103D592
:104C3000BDE88901BDE80088BDE88901BDE80048FC
:104C4000B619524141EB0101A3F101037047808085
:104C50007F7E7D7C7B7A79787776767574737271D6
:104C600071706F6E6E6D6C6C6B6A6A69686867668E
:104C700066656464636362616160605F5F5E5E5D20
:104C80005D5C5C5B5B5A5A59595858575756565594
:104C900055555454535352525251515050504F4FF6
:104CA0004F4E4E4D4D4D4C4C4C4B4B4B4A4A4A4946
:104CB0004949484848474747474646464545454489
:104CC0004444444343434342424242414141002B16
:104CD00026D4770021D01CB54FEA370703B44FF034
:104CE00010004FF010014FF000000FBCBDE8104065
:104CF0000BF1010BBBF1010F08BF5FEA170722BFE1
:104D000012F1010211F101014FF0004143F10003E2
:104D100000F0004043EA00007047F9D35708DAE793
:104D200046EA064613F1400F4FEA16461FDD13F11F
:104D3000200FDFBF16430A46002120335B42C8D054
:104D4000C3F1200746EA064602FA07F74FEA16467D
:104D500046EA0706C3F1200722FA03F201FA07F731
:104D600021FA03F14FF0000342EA0702B1E746EAF5
:104D7000020646EA06464FEA164646EA0106BCBF68
:104D800046EA0646360C4FF000034FF000024FF0A3
:104D900000019EE72DE9C048934630B491E8380001
:104DA00007C831EA400C48BF34EA430C03D5FFF78B
:104DB000F2FDFFF78CFFF0BCBDE800882DE9C0488C
:104DC000934630B491E8380007C810F0804F08BF10
:104DD00013F0804F03D100F005F8FFF778FFF0BC27
:104DE000BDE8008820F07F4780EA030023F07F4C75
:104DF00007EB0C03A3F57C5300F00040A3F1FE0386
:104E000092F0000F00F0B38095F0000F00F0778073
:104E10002DE901494FEA11404FEA144621EA0048C2
:104E200000FB06FC24EA064708FB06F607FB08F829
:104E300000FB07F718EB06484CEB164C4FEA124BF9
:104E400018EB07484FEA15464CEB174022EA0B4E89
:104E50000BFB06FC25EA06470EFB06F607FB0EFEDB
:104E60000BFB07F71EEB064E4CEB164C4FF0000603
:104E70001EEB074E4CEB174B18EB0B0840F10000F4
:104E800018EB0E0B58EB000840F100008F1A4FF0A2
:104E900000013CBFC943661B14BFB5EB040C0021E5
:104EA0003CBFC943F61B4FEA17444EEA8E0E27EA71
:104EB00004454FEA1C4704FB07622CEA074C05FB3C
:104EC00007F70CFB05F604FB0CFC16EB074642EB60
:104ED000174216EB0C4642EB1C421BEB060658EB46
:104EE0000202414146EA9E0601D5BDE80189B61994
:104EF000524141EB0101A3F10103BDE801894FEAF1
:104F000014454FEA114724EA054621EA074C05FB00
:104F100007F406FB07F70CFB06F105FB0CFC11EB95
:104F2000074144EB17444FEA124711EB0C4144EBA5
:104F30001C4422EA074C05FB07F206FB07F70CFBB3
:104F400006F605FB0CFC16EB074642EB174216EB88
:104F50000C4642EB1C456A1854F1000148BF7047EB
:104F6000B619524141EB0101A3F10103704795F0DD
:104F7000000F37D04FEA11424FEA144721EA0246A8
:104F800024EA074C02FB07F106FB07F70CFB06F4CB
:104F900002FB0CFC14EB074441EB17414FEA1547A9
:104FA00014EB0C4441EB1C4125EA074C02FB07F5CE
:104FB00006FB07F70CFB06F602FB0CFC16EB07469C
:104FC00045EB174516EB0C4645EB1C42121951F107
:104FD000000148BF7047B619524141EB0101A3F1EE
:104FE000010370474FEA14454FEA114724EA05468A
:104FF00021EA074C05FB07F106FB07F70CFB06F25D
:105000004FF0000605FB0CFC12EB074241EB174189
:1050100012EB0C4251EB1C4148BF7047921841EB18
:105020000101A3F101037047490050EAC12018BFF4
:1050300004204A0D18BF40F0010040F2FF72B2EBAD
:10504000515F08BF40F00200012808BF05207047EB
:1050500010B500290AD00878002807D00548784400
:10506000FFF7DAFB002801D0002010BD0248784489
:1050700010BD000002050000FA04000010B5002970
:105080000AD00878002807D005487844FFF7C4FB09
:10509000002801D0002010BD0248784410BD000057
:1050A000F2040000EA0400004FF47F0C1CEAD01266
:1050B0001EBF1CEAD11392EA0C0F93EA0C0F00F00A
:1050C000858090EA010F48BF42F4807240F4000CE2
:1050D00041F400002CF07F4120F07F4000B5814278
:1050E000A2EB03020FF2081CACEB504EC0F1000023
:1050F0009EF800E04FEA4E0E00FB0EFC38BF490060
:105100004FEA2C1C02F5FA020CFB0EF34FEACE1EFE
:105110004FEA112C4FEAC1210EEB635E42EB2242B3
:105120000EFB0CFC4FEA1C5300FB03114FEA112C41
:105130004FEA01310EFB0CFC4FEADC4C00FB0C117A
:10514000C14228BF09184CEB03335DF804EB10EBA8
:10515000410143EBC250B2F57C0F38BF704729D5EF
:1051600012F0F00F1CBF00F1C04000F0004070478B
:10517000008182838485868788898B8C8D8E8F9130
:105180009293959697999A9C9D9FA0A2A3A5A7A854
:10519000AAACAEB0B2B3B5B7B9BCBEC0C2C5C7C980
:1051A000CCCED1D4D7D9DCDFE2E6E9ECF0F3F7FAE4
:1051B000FE0000004FEA400C0CF1807CBCF17E4FF9
:1051C00028BF7047B0F1C04000F046B990EA010F27
:1051D0000CEAD11348BF42F48072624538BF634580
:1051E00007D213F47F0F16D080EA010000F00040D0
:1051F000704710B500F0E3F8097EFC3E00F005B8FA
:1052000080EA010000F00040704780EA010000F0F1
:10521000004000F021B912F47F0F04BF024870472C
:1052200080EA010000F018B90000C07F41000B0EB9
:10523000D3F19E0208D950F400034FEA032323FA66
:1052400002F048BF4042704710B500F0B8F800BF08
:1052500049922480002070476FF0004282EA2000CB
:105260007047000010F0004148BF4042B0FA80F3A0
:1052700010FA03F2C3F19D030BD051EAC35101EBC5
:105280001220530638BF704700F1010008BF20F01C
:1052900001007047B0FA80F310FA03F2C3F19D03E6
:1052A0000AD0D90501EB1220530638BF704700F130
:1052B000010008BF20F00100704700004FF47F0C90
:1052C0001CEAD0121EBF1CEAD11392EA0C0F93EA1B
:1052D0000C0F00F0478090EA010F48BF42F4807243
:1052E0004FF0004C4CEA00204CEA012102EB030293
:1052F000A0FB0113A2F50002002918BF43F001032F
:105300005B0028BF4FEA330342EB22425FEA132CD3
:105310004CEBC2502EBFBCEB436FB2F57C0F704715
:105320004FEA036CBCF1004F08BF20F00100B2F55A
:105330007C0F38BF70470BD582F0FF0212F5803F1B
:10534000C8BF704700F1C040D8BF00F000407047B0
:1053500000F5000C5FEA4C0C48BF7047B0F1C0404C
:1053600000F07AB890EA010F0CEAD11348BF42F47A
:105370008072624538BF634504D280EA010000F0C4
:105380000040704710B500F01AF800BF8900013ED8
:1053900000F007B800F009B85FEA410C5FEA1C6C46
:1053A00008D080EA010000F057B85FEA400C5FEADD
:1053B0001C6CF6D14FF00040A0F5800070470EF154
:1053C000020E2EF0030E5EF8044B244204D44FEA82
:1053D0004102B2F17F4F11D84FEA4003B3F17F4F42
:1053E0000CD80ED14FEAD07CB2F17F4F0CEB4C0CB5
:1053F0000CF1020C08BF4CEBD17C04E04FF0080C20
:1054000001E04FEAD17C0CEB4C0324FA03F404F0E6
:105410000704B4F1040C06D20EEB840CBDE8104076
:105420004CF0010C6047DFE80CF0070802024FF077
:105430000040A0F5800010BD0846420018BFD2F120
:10544000807288BF00F0004010BD10B5FFF724FA4D
:105450004FF00001016010BDFF2141EAD050C005AE
:105460007047FEF75FBF0000000000000000000072
:10547000303132333435363738394142434445468A
:105480004030580030313233343536373839616284
:105490006364656640307800040000080000000086
:1054A00000000002000100001000000002400000A7
:1054B000000000A00000000005400000000000C83F
:1054C000000000000C4000000000409C00000000B4
:1054D000194000000020BCBE000000003440000065
:1054E000BFC91B8E00000004B5400000504BCFD058
:1054F0006607E2CF010000006C4100003E8251AA25
:10550000DFEEA73401000000D9420000DCB5A0E2C4
:105510003A301F97FFFFFFFFB4450000FD25A0C8EC
:10552000E9A3C14FFFFFFFFFFF3F00000000008025
:1055300000000000FF3F00000000008000000000AD
:105540008C56000800000020700000008C0100084C
:10555000FC5600087000002060060000A80100084A
:105560001C00000043000000F8FFFFFF0C000000DB
:105570000E0000000F0000002E00000010010000CF
:1055800043000000F8FFFFFF004040404040404023
:105590004040414141414140404040404040404006
:1055A00040404040404040404005020202020202AA
:1055B00002020202020202020220202020202020F9
:1055C000202020020202020202029090909090900D
:1055D00010101010101010101010101010101010CB
:1055E000101010100202020202028888888888883F
:1055F000080808080808080808080808080808082B
:105600000808080802020202400000000000000032
:10561000000000000000000000000000000000008A
:10562000000000000000000000000000000000007A
:10563000000000000000000000000000000000006A
:10564000000000000000000000000000000000005A
:10565000000000000000000000000000000000004A
:10566000000000000000000000000000000000003A
:10567000000000000000000000000000000000002A
:10568000000000000000000000000000000000001A
:105690000000000000000000000000000001020304
:1056A00004050607000000000000000000000000E4
:1056B00000000000000000000000000000000000EA
:1056C00000000000000000000000000000000000DA
:1056D00000000000000000000102030401020304B6
:1056E000060708090204060800A24A040000000098
:0C56F00000000000010203040607080986
:04000005080001519D
:00000001FF
