:020000040800F2
:10000000C00F002021150008291500082B15000835
:100010002D1500082F1500083115000800000000FC
:100020000000000000000000000000003315000880
:1000300035150008000000003715000839150008C4
:100040003B1500083B1500083B1500083B15000850
:100050003B1500083B1500083B1500083B15000840
:100060003B1500083B1500083B1500083B15000830
:100070003B1500083B1500083B1500083B15000820
:100080003B1500083B1500083B1500083B15000810
:10009000910F00083B1500083B1500083B150008B0
:1000A0003B1500083B1500083B1500083B150008F0
:1000B000331000085D100008831000083B1500088D
:1000C0003B1500083B1500083B1500083B150008D0
:1000D0003B1500083B1500083B1500083B150008C0
:1000E0003B1500083B1500083B1500083B150008B0
:1000F0003B1500083B1500083B1500083B150008A0
:100100003B1500083B150008A91000083B15000826
:100110003B1500083B1500083B1500083B1500087F
:100120003B1500083B1500083B1500083B1500086F
:1001300000F002F800F092F80AA090E8000C824467
:100140008344AAF10107DA4501D100F087F8AFF244
:10015000090EBAE80F0013F0010F18BFFB1A43F0A5
:10016000010318473867000058670000103A24BFA1
:1001700078C878C1FAD8520724BF30C830C144BF0C
:1001800004680C607047000000230024002500264E
:10019000103A28BF78C1FBD8520728BF30C148BFEA
:1001A0000B6070476E2904F00781702904F05082BB
:1001B000662906F00483652906F00183672906F0A5
:1001C000FE826129AFF3008003681B0A28BF41F05B
:1001D0008001692904F0B680642904F0B380752990
:1001E00004F0B0806F2904F0DB81782904F01C82D0
:1001F000E92904F07381E42904F07081F52904F001
:100200006D81EF2904F0D881F82904F01B8203687E
:10021000DB0928BF41F08001632904F0A38573291D
:1002200004F0A885E32904F0B385F32904F0B88528
:10023000002070471FB506F010FA04F00BFE040012
:100240000020002105F0FCFA401C60600020002125
:1002500005F0E0FAE0601FBD10B510BD04F0CCFD64
:100260001146FFF7E7FF00F009F804F0ADFE03B414
:10027000FFF7F2FF03BC04F0F7FE0000002403F0D8
:10028000A5FE03F061FE03F0E0FE03F024FF03F09F
:100290003BFF00F0E3FB002504E029467AA003F0D1
:1002A00038FE6D1C0A2DF8DB00F024FC00F085FC04
:1002B00000F0E4FC00F043FDE5E07548007801281B
:1002C0007ED10020724908707248047814F0010F42
:1002D0001FD0007942F2107148436E49497901EB11
:1002E000C10202EB011100EB81006A4989790844DF
:1002F000694908600846016868A003F00AFE2046C4
:1003000000F008FF64498969088800F048FC00F0A3
:100310004EFC14F0020F20D05E48007942F21071BA
:1003200048435C49497901EBC10202EB011100EB42
:10033000810058498979084459490860084601688C
:1003400056A003F0E6FD204600F0E4FE544989691A
:10035000088800F084FC00F08BFC14F0040F20D01F
:100360004C48007942F2107148434A49497901EBFF
:10037000C10202EB011100EB810046498979084472
:10038000484908600846016844A003F0C2FD2046C1
:1003900000F0C0FE43498969088800F0C1FC00F004
:1003A000C8FC14F0080F22D03A48007941F270716D
:1003B00048433849497901EBC10202EB011100E0E1
:1003C0004DE000EB810033498979084436490860E3
:1003D0000846016831A003F09CFD204600F09AFE1B
:1003E00031498969088800F0FCFC00F003FD2948C8
:1003F000407810F0010F04D004212C4802F025FAB7
:1004000003E00421294802F022FA2248407810F043
:10041000020F04D00821254802F017FA03E0082152
:10042000224802F014FA1B48407810F0040F04D060
:1004300010211E4802F009FA03E010211B4802F0C7
:1004400006FA1448407810F0080F04D0202117480D
:1004500002F0FBF903E02021144802F0F8F9012C26
:1004600002D1012000F0DCFC022C02D1022000F0BD
:10047000D7FC042C02D1042000F0D2FC082C02D1BD
:10048000082000F0CDFC18E72564202000000000C3
:10049000040000200C000020D008002025640A0081
:1004A000F4080020180900203C0900200010014039
:1004B0002DE9F04F9BB08346884616461F46DDE97E
:1004C000249A0021504606F0D4F834D831465046DC
:1004D00005F0C8FF2FD2504605F0E0FDCDE914012C
:1004E000504605F0DBFDCDE91001404605F0D6FD94
:1004F0000022FF4BCDE90C0105F0E8FBCDE90E0130
:10050000DDE9102305F0E2FBCDE91201DDE914235A
:1005100005F0DCFBCDE91801584605F0BFFDCDE93B
:100520001601DDE9182305F0D3F9044605F09EF91C
:100530001BB0BDE8F08F5146304605F093FF4DD813
:100540003946304605F0D6FD0446514606F091F88E
:1005500044D23146504606F0BDF84146139005F0AE
:10056000B5FF0546314605F0B1FF044605F096FD9E
:10057000CDE91601304605F091FDCDE90E0130467A
:1005800005F08CFDCDE90C01404605F087FD002209
:10059000D74BCDE9080105F099FBCDE90A01DDE96A
:1005A0000C2305F093FB0446DDE90E2305F08EFBDA
:1005B000CDE91201584605F071FDCDE91001DDE9E4
:1005C000122305F085F9CDE91401DDE9162305F0C4
:1005D0007FF9CDE9180105F049F9A9E73946304618
:1005E00005F088FD0446514605F03CFF7ED83946AB
:1005F000304605F07FFD0546494605F07BFD044683
:10060000514606F036F871D2484605F047FDCDE96F
:1006100012013946304605F06DFD49460B9005F054
:1006200069FD0546514606F055F8044605F036FDCD
:10063000CDE90E013946304605F05CFD494607908C
:1006400005F058FD0546514606F044F8044605F00D
:1006500025FDCDE90A01304605F020FD04460D4692
:10066000404605F01BFD0022A14BCDE9040105F039
:100670002DFB22462B46CDE9060105F027FBCDE9EF
:100680000801DDE90A2305F021FBCDE90C01DDE9D4
:100690000E2305F01BFBCDE91001DDE9122305F067
:1006A000BDF9CDE91601484605F0F8FCCDE90E018B
:1006B000304605F0F3FCCDE90C01404605F0EEFCB8
:1006C00000228B4BCDE9080105F000FBCDE90A01C2
:1006D000DDE90C2305F0FAFA0446DDE90E2305F006
:1006E000F5FACDE912014146384600E04AE005F04E
:1006F000EDFE0546314605F0E9FE044605F0CEFC68
:10070000CDE90E01304605F0C9FCCDE906013046C1
:1007100005F0C4FCCDE90201404605F0BFFC0446EB
:100720000022734B05F0D2FACDE90001DDE9022386
:1007300005F0CCFACDE90401DDE9062305F0C6FA9F
:10074000CDE90A01584605F0A9FCCDE90801DDE92B
:100750000A2305F0BDF8CDE90C01DDE90E2305F013
:10076000B7F8CDE91001DDE9122305F0B1F8CDE9C4
:100770001401DDE9162305F0A7FBCDE9180105F00A
:1007800075F8D5E63946304605F0B4FC05464946CD
:1007900005F0B0FC0446514605F0DCFD68D1484642
:1007A00005F07CFC04460D46304605F077FCCDE9AB
:1007B0001001404605F072FC00224D4BCDE90C01C2
:1007C00005F084FACDE90E01DDE9102305F07EFA8B
:1007D00022462B46CDE9120105F078FACDE9160143
:1007E0004146384605F072FE0546314605F06EFE7C
:1007F000044605F053FCCDE91201304605F04EFCED
:10080000CDE90A01304605F049FC04460D46404654
:1008100005F044FC0022364BCDE9040105F056FA00
:1008200022462B46CDE9060105F050FACDE9080134
:10083000DDE90A2305F04AFACDE90E01584605F034
:100840002DFCCDE90C01DDE90E2305F041F8CDE9E1
:100850001001DDE9122305F03BF8CDE91401DDE9D3
:10086000162305F035F8CDE9180104F0FFFF5FE627
:1008700000205DE62DE9FF4F85B017469846DDE97B
:100880001295149E00200490002438E0204605F0C4
:10089000D1FD83461749384605F09AFC5946039026
:1008A00005F014FE824643463A46CDE90090DDE964
:1008B0000501FFF7FDFD04900F48049905F088FC41
:1008C000824605F097FD25F814000A49384605F0E0
:1008D0007FFC0390049905F0F9FD83464FF07E51AB
:1008E00005F076FC824605F069FD46F8240005E037
:1008F0000000E03F0000704100247449641C0F2C8C
:10090000C4DB0F2436E0A4F10F0005F093FD654928
:100910000390404605F05CFC0290039905F0D6FD7B
:100920008346394605F0E6FB824643463A46CDE922
:100930000090DDE90501FFF7BBFD04905A480499DA
:1009400005F046FC824605F055FD25F81400554992
:10095000404605F03DFC0390049905F0B7FD834641
:100960004FF07E5105F034FC824605F027FD46F835
:100970002400641C2D2CC6DB2D243BE0A4F12D00AB
:1009800005F058FD49490290484605F021FC0190C8
:10099000029905F09BFD83464146384605F0AAFBC7
:1009A0005946039005F0A6FB824643463A46CDE9F8
:1009B0000090DDE90501FFF77BFD04903A480499BA
:1009C00005F006FC824605F015FD25F814003749B0
:1009D000484605F0FDFB0390049905F077FD83463A
:1009E0004FF07E5105F0F4FB824605F0E7FC46F837
:1009F0002400641C3C2CC1DB4146384605F07AFBE0
:100A00008346494605F076FB824643463A46CDE9A1
:100A10000090DDE90501FFF74BFD049022480499A1
:100A200005F0D6FB824605F0E5FCA5F8780000202D
:100A3000C6F8F0003D240CE0C4F1780035F8100051
:100A400025F81400C4F1780056F8200046F8240078
:100A5000641C792CF0DB09B0BDE8F08F0EB5144BA7
:100A6000144A15498DE80E00144B0A4614491548DE
:100A7000FFF700FF144B154A15498DE80E00154B82
:100A80000A4615491548FFF7F5FE154B154A164954
:100A90008DE80E000E4B0A4614491548FFF7EAFE92
:100AA0000EBD00000000F0410024744900007041B8
:100AB0003C010020480000209A99993E9A99193FDC
:100AC00000409C460000FA4314040020200300204C
:100AD000CDCC4C3ECDCCCC3E55555046ABAAA643D2
:100AE000EC060020F8050020CDCCCC3D5555D04576
:100AF000ABAA264300B589B00121084602F0BAF836
:100B00000121042002F0A9F80120ADF8040018200A
:100B10008DF8070003208DF8060001A9B84801F000
:100B2000E9FD4FF0804002F003F90020ADF81E000F
:100B3000ADF81A004720ADF8180040F2E730ADF8E4
:100B40001C0006A94FF0804002F0C6F96020ADF805
:100B500008000120ADF80A000020ADF810004FF4A5
:100B6000FA70ADF80E0002A9000702F0F2F90821B0
:100B7000C80602F019FE0121880702F0E5FD0121F7
:100B8000880702F095FF01221146900702F0F9FC58
:100B900000214FF0804002F0CEFC09B000BD4FF0C4
:100BA0008041888541104FF080429186704710B592
:100BB0000121880702F0BFFC10BD00B589B00121FA
:100BC000022002F057F80121042002F046F84020EC
:100BD000ADF8040018208DF8070003208DF80600FA
:100BE00001A9874801F086FD864802F0A1F800209F
:100BF000ADF81E00ADF81A004720ADF8180040F21D
:100C0000E730ADF81C0006A97E4802F065F96020C7
:100C1000ADF808000120ADF80A000020ADF8100082
:100C20004FF4FA70ADF80E0002A9764802F091F97F
:100C30000821744802F0B8FD0121724802F084FDD9
:100C40000121704802F034FF012211466D4802F084
:100C500098FC00216B4802F06EFC09B000BD6A49A7
:100C600008804FEA60014FF08042A2F834147047C8
:100C700010B50121634802F05EFC10BD00B589B0DB
:100C80000121042001F0F6FF0121082001F0E5FF19
:100C90004020ADF8040018208DF8070003208DF8DF
:100CA000060001A9594801F025FD594802F040F815
:100CB0000020ADF81E00ADF81A004720ADF818006E
:100CC00040F2E730ADF81C0006A9514802F004F9E3
:100CD0006020ADF808000120ADF80A000020ADF852
:100CE00010004FF4FA70ADF80E0002A9484802F067
:100CF00030F90821464802F057FD0121444802F02E
:100D000023FD0121424802F0D3FE01221146404852
:100D100002F037FC00213E4802F00DFC09B000BD96
:100D20003C4908804FEA60014FF08042A2F8341835
:100D3000704710B50121364802F0FDFB10BD00B52B
:100D400089B00121082001F095FF0121042001F064
:100D500084FF0220ADF8040018208DF8070003205E
:100D60008DF8060001A9264801F0C4FC2A4801F0CC
:100D7000DFFF0020ADF81E00ADF81A004720ADF8E7
:100D8000180040F2E730ADF81C0006A9224802F036
:100D9000A3F86020ADF808000120ADF80A0000209B
:100DA000ADF810004FF4FA70ADF80E0002A91A4821
:100DB00002F011F90821184802F0FFFC0121164841
:100DC00002F0C2FC0121144802F072FE0122114619
:100DD000114802F0D6FB00210F4802F0ACFB09B02D
:100DE00000BD0E4908804FEA60014FF08042A2F832
:100DF000381C704710B50121074802F09CFB10BD5C
:100E000000080140000400402C040040000C014098
:100E1000000800402C080040000C00402C0C004052
:100E200070B5054615F0010F13D0514CA268A169A9
:100E300031F81200FFF7B3FE21682069884208DB11
:100E400000202061E060A06000214FF0804002F0AF
:100E500072FB15F0020F12D0464CA268A16931F85E
:100E60001200FFF7FCFE21682069884207DB0020A2
:100E70002061E060A06000213F4802F05CFB15F0BB
:100E8000040F12D03D4CA268A16931F81200FFF79F
:100E900047FF21682069884207DB00202061E0606D
:100EA000A0600021364802F046FB15F0080F12D072
:100EB000344CA268A16931F81200FFF792FF216853
:100EC0002069884207DB00202061E060A0600021EB
:100ED0002D4802F030FB6068E0B9A168606950F805
:100EE0002100E168884242DC2849A068096849007D
:100EF00088423CD8A068401CA0600020E0602348E5
:100F0000A1680068B1EB400F31D320480068400071
:100F1000A0602CE0A168606950F82100E168884277
:100F200025DCE169206988420EDCA068401CA060D5
:100F3000D4E90110884205DD144800686168C1EBFE
:100F40004000A0600020E060E169206988420EDD79
:100F5000A068401CA0600020E0600C48A168006808
:100F6000B1EB400F03D3094800684000A06070BD9A
:100F7000D0080020F40800200004004018090020D8
:100F8000000800403C090020000C00401400002034
:100F900010B586B0002001908DF80C008DF80E0081
:100FA0008DF817008DF80F0000218DF810108DF8C6
:100FB00011108DF812108DF813108DF814108DF893
:100FC00015108DF8161001AA414800F0E1FD4149C5
:100FD000019808609DF80F003F4908709DF81000C7
:100FE00048709DF8110088709DF81200C8709DF837
:100FF000130008719DF8140048719DF81500887160
:101000009DF81600C8710221314800F0DCFF012074
:101010003249087032A002F07CFF002405E02E481F
:10102000015D32A002F075FF641C082CF7DB06B0EE
:1010300010BD4FF08040008A10F0010F08D02E48FC
:10104000C068401C2C49C86008460069401C086103
:101050004FF6FE704FF080410882704727480088A5
:1010600010F0010F08D02648C068401C2449C86011
:1010700008460069401C08614FF6FE701F49088051
:1010800070472048008810F0010F08D01E48C06843
:10109000401C1D49C86008460069401C08614FF6A5
:1010A000FE701849088070471848008810F0010F3A
:1010B00008D01748C068401C1549C8600846006938
:1010C000401C08614FF6FE70104908807047000010
:1010D00000640040080000200C00002004000020F4
:1010E000BDF8C8EBD6D0B6CF0A00000063616E72BF
:1010F000782025640A000000D00800201004004079
:10110000F40800201008004018090020100C0040CE
:101110003C090020F0B503460022002413F0010F23
:1011200000D0814813F0020F00D0804813F0040F64
:1011300000D07F4813F0080F00D07E480025C5611D
:1011400005627D4D85617D4D4561056805B9F0BD40
:10115000002106E0794E56F82160C5693544C56125
:10116000491C774D2D68A942F4D3012109E0744E42
:10117000056A36680E44714F57F82660354405629B
:10118000491C704D2D68A942F1D9D0E90756354464
:101190000668B54208DAC6690568AD1B066AAD1B6C
:1011A0004669C6F8F050BCE00025C5610562664D91
:1011B0008561664D4561002106E0644E56F8216068
:1011C000C5693544C561491C5D4D2D68A942F4D3FC
:1011D000012109E05A4E056A36680E445B4F57F804
:1011E000266035440562491C564D2D68A942F1D947
:1011F000D0E9075635440668B54208DAC66905687D
:10120000AD1B066AAD1B4669C6F8F05089E00025A3
:10121000C56105624E4D85614E4D4561002106E078
:101220004C4E56F82160C5693544C561491C444D92
:101230002D68A942F4D3012109E0414E056A3668C0
:101240000E44444F57F8266035440562491C3D4D15
:101250002D68A942F1D9D0E9075635440668B54250
:1012600008DAC6690568AD1B066AAD1B4669C6F893
:10127000F05056E00025C5610562354D8561354D5C
:101280004561002104E0456955F821502C44491C72
:10129000456955F8215025440668B5EB660FF2D331
:1012A00041600568C4EB65054768466946F8275004
:1012B0000568C4EB6505224E36684768C7EB4606ED
:1012C000476947F82650002206E0224E56F8226071
:1012D000C5693544C561521C45689542F5DA184D1B
:1012E0002D684668C6EB450206E01A4E56F82260A5
:1012F000056A35440562521C114D2D686D009542FA
:10130000F3D245686A1C04E00025466946F822507D
:10131000521C0B4D2D686E0045686D1C751B954267
:10132000F2D200BF13E70000D0080020F40800202C
:10133000180900203C090020480000203C01002042
:1013400014000020180000202003002014040020B6
:10135000F8050020EC06002000210020674A1268F2
:1013600042F48032654B1A6000BF644A126802F48E
:101370000030491C10B9B1F5A06FF6D15F4A126870
:1013800012F4003F01D0012000E00020012842D1EA
:101390005B4A126842F01002594B1A601A461268F2
:1013A00022F003021A601A46126842F002021A6022
:1013B000524A5268514B5A601A4652685A601A464D
:1013C000526842F480625A601A46526822F47C12D3
:1013D0005A601A46526842F4E8125A601A46126875
:1013E00042F080721A6000BF444A126812F0007F17
:1013F000FAD0424A526822F00302404B5A601A4621
:10140000526842F002025A6000BF3C4A526802F041
:101410000C02082AF9D1704710B5FFF79DFF10BDE7
:1014200010B53648006840F00100344908600846AD
:1014300040683449084031494860084600683249EC
:1014400008402E4908600846006820F480200860A3
:101450000846406820F4FE0048604FF41F00886092
:10146000FFF7DAFF4FF000602849086010BD10B5A3
:10147000002100200022214B5B6803F00C0121B108
:10148000042906D0082928D107E0214B214C2360EC
:1014900027E01F4B1F4C236023E0184B5B6803F4CD
:1014A0007010164B5B6803F48032022303EB90400C
:1014B00022B9194B4343174C23600DE00F4B5B6877
:1014C00013F4003F04D0144B4343124C236003E059
:1014D0000F4B43430F4C236003E00D4B0D4C236037
:1014E00000BF00BF054B5B68C3F303130B4CE15C0B
:1014F000084B1B68CB40074C236010BD0010024016
:10150000002002400000FFF8FFFFF6FE08ED00E0BB
:1015100000127A001C00002000093D00200000207D
:101520000948804709480047FEE7FEE7FEE7FEE777
:10153000FEE7FEE7FEE7FEE7FEE7FEE704480549B3
:10154000054A064B704700002114000831010008CD
:10155000C0090020C00F0020C00B0020C00B0020DD
:1015600036490143364A1160704770B500210023A7
:101570000F22C4784CB3324C246804F4E064C4F500
:10158000E0644FEA1421C1F1040322FA01F2447825
:1015900004FA03F1847804EA020444EA01014FEA00
:1015A0000111284C0678A155047804F01F054FF06E
:1015B000010404FA05F405784FEA65154FF0E026BA
:1015C00006EB8505C5F8004109E0047804F01F0525
:1015D0000124AC401C4D0678761145F8264070BDBC
:1015E0001A4A0A4002431A4B1A60704741B1194A1D
:1015F000126842EA00024FF0E023C3F8102D07E022
:10160000144A126822EA00024FF0E023C3F8102DBA
:101610007047042808D14FF0E021096941F0040126
:101620004FF0E022116107E04FF0E021096921F05D
:1016300004014FF0E0221161704700000000FA053C
:101640000CED00E000E400E080E100E080FFFF1F1F
:1016500008ED00E010ED00E010B50446FF488442BC
:1016600009D10121480601F01FFB00214FF0007055
:1016700001F01AFB08E00121880601F015FB0021AA
:101680004FF0806001F010FB10BD30B50246002025
:101690000023146824F002041460146844F0010468
:1016A000146000E05B1C546804F00104012C03D0BA
:1016B000A3F57F44FF3CF5D1546804F00104012CEC
:1016C00001D000206EE08C79012C04D1146844F024
:1016D0008004146003E0146824F080041460CC7962
:1016E000012C04D1146844F04004146003E0146831
:1016F00024F0400414600C7A012C04D1146844F0E6
:101700002004146003E0146824F0200414604C7A70
:10171000012C04D1146844F01004146003E0146830
:1017200024F0100414608C7A012C04D1146844F065
:101730000804146003E0146824F008041460CC7AF0
:10174000012C04D1146844F00404146003E014680C
:1017500024F0040414608C78A407CD7844EA05646E
:101760000D7944EA05444D7944EA05540D886D1E0F
:101770002C43D461146824F001041460002300E0B9
:101780005B1C546804F00104012C03D1A3F57F44D1
:10179000FF3CF5D1546804F00104012C01D1002074
:1017A00000E0012030BD10B50021837A012202FA49
:1017B00003F1AB4A126842F00102AA4BC3F80026BB
:1017C0001A46D2F81C2622EA0102A74B1A60027BB5
:1017D000B2B9A64A126822EA0102A44B1A604288F2
:1017E000C38842EA0343A24A847A42F8343002882A
:1017F000838842EA03439E4A847A02EBC402536020
:10180000027B012A16D1994A126842EA0102974BDB
:101810001A604288038842EA0343954A847A42F870
:101820003430C288838842EA0343914A847A02EBC7
:10183000C4025360C27A3AB98E4A126822EA01029F
:10184000884BC3F8042606E08A4A126842EA01027D
:10185000844BC3F80426028932B9874A126822EA07
:101860000102804BC3F814260289012A06D1824A5C
:10187000126842EA01027B4BC3F81426427B012A1C
:1018800006D1794A126842EA0102764BC3F81C2657
:10189000734A126822F00102724BC3F8002610BD91
:1018A00000218171C171017241728172C1728170B6
:1018B000C170032101710221417101210180704732
:1018C0006749096841F00101664AC2F80016644997
:1018D000096843F60E7221EA0201624AC2F8001654
:1018E0001146D1F8001641EA0021C2F8001611464F
:1018F000D1F8001621F00101C2F80016704721B19D
:10190000026842F48032026003E0026822F480320E
:1019100002607047E1B1026842F0800202604FF459
:10192000C272125842F480734FF4C27213504FF4D3
:10193000CA72125842F480734FF4CA7213504FF4B3
:10194000D272125842F480734FF4D27213501BE0DB
:10195000026822F0800202604FF4C272125822F430
:1019600080734FF4C27213504FF4CA72125822F4AB
:1019700080734FF4CA7213504FF4D272125822F48B
:1019800080734FF4D2721350704710B50246002096
:10199000936803F08063B3F1806F00D110E0936827
:1019A00003F00063B3F1006F01D1012008E09368F8
:1019B00003F08053B3F1805F01D1022000E00420E6
:1019C00004287ED002F5C07303EB00131B6803F0FC
:1019D000010402F5C07303EB00131C600B7A7BB9A2
:1019E0004B7A0C6843EA445302F5C07404EB0014CC
:1019F0002468234302F5C07404EB0014236010E054
:101A00000B7A4C6843EAC4034C7A234302F5C07452
:101A100004EB00142468234302F5C07404EB0014A3
:101A200023608B7A03F00F038B7202F5C07303EB14
:101A300000135B6823F00F0402F5C07303EB00137F
:101A40005C6002F5C07303EB00135B688C7A234380
:101A500002F5C07404EB001463600FE00064004002
:101A600000660040006000401C6600400C660040BC
:101A70004066004004660040146600408B7B1C06F4
:101A80004B7B44EA03440B7B44EA0323CC7A234395
:101A900002F5C07404EB0014A3608B7C1C064B7C25
:101AA00044EA03440B7C44EA0323CC7B234302F542
:101AB000C07404EB0014E36002F5C07303EB001381
:101AC00000E007E01B6843F0010402F5C07303EB7C
:101AD00000131C6010BD10B50246002321B101297E
:101AE00007D002290FD109E09068F84C00EA0403FE
:101AF0000BE09068F64C00EA040306E09068F54CB1
:101B000000EA040301E0002300BF00BFF24C181BF1
:101B1000A34216D007DC83B16FF0806018180ED096
:101B2000022818D111E0B0F5007F10D0EB4C00195D
:101B300009D0B0F5003F0ED10BE002230DE00023E9
:101B40000BE0002309E0002307E0012305E0012367
:101B500003E0012301E0002300BF00BFD8B210BDA5
:101B600021B1012907D002290FD109E0826842F092
:101B7000800282600AE0826842F40042826005E0EE
:101B8000826842F40002826000E000BF00BF70473C
:101B900010B500F5D87303EB01131B6803F00403C1
:101BA0001372137A53B900F5D87303EB01131B6852
:101BB00040F2FF7404EA5353136009E000F5D87350
:101BC00003EB01131B686FF0604404EAD303536016
:101BD00000F5D87303EB01131B6803F00203537283
:101BE00000F5D87303EB01135B6803F00F039372E6
:101BF00000F5D87303EB01135B681B0AD37400F57F
:101C0000D87303EB01139B68D37200F5D87303EB11
:101C100001139B681B0A137300F5D87303EB0113C0
:101C20009B681B0C537300F5D87303EB01139B687F
:101C30001B0E937300F5D87303EB0113DB68D373AA
:101C400000F5D87303EB0113DB681B0A137400F56E
:101C5000D87303EB0113DB681B0C537400F5D873C6
:101C600003EB0113DB681B0E937421B9C36843F0C7
:101C70002003C36003E0036943F02003036110BD48
:101C800021B9C26842F02002C26003E0026942F05A
:101C90002002026170470246002019B9D36803F0A0
:101CA000030006E0012903D1136903F0030000E0FB
:101CB0000020704710B502460B4600204FF6FF711A
:101CC000BBB9146824F0020444F00104146000E07D
:101CD000491E546804F00304012C01D00029F7D1F7
:101CE000546804F00304012C01D0002032E00120EC
:101CF00030E0012B13D1146824F00304146000E0D9
:101D0000491E546814F0030F01D00029F8D154681B
:101D100014F0030F01D000201CE001201AE0022B78
:101D200017D1146824F0010444F00204146000E0A8
:101D3000491E546804F00304022C01D00029F7D195
:101D4000546804F00304022C01D0002002E00120BA
:101D500000E0002010BD014600200A6822F00102C8
:101D600042F002020A604A6802F00302022A00D12D
:101D70000120704701464FF6FF7200200B6823F0E8
:101D800002030B6000E0521E4B6803F00203022BBB
:101D900001D1002AF7D14B6803F00203022B00D0D7
:101DA00001207047014600208A6902F070007047E8
:101DB000014600208A69100E7047014600208A699A
:101DC000C2F3074070471AB143690B43436102E015
:101DD00043698B434361704710B50246002011F4FC
:101DE000700F08D09369C1F31304234201D001207E
:101DF0002DE000202BE011F0807F08D05368C1F364
:101E00001304234201D0012021E000201FE011F043
:101E1000006F08D09368C1F31304234201D001205E
:101E200015E0002013E011F0007F08D0D368C1F363
:101E30001304234201D0012009E0002007E01369C8
:101E4000C1F31304234201D0012000E0002010BDA3
:101E50000022234B994202D10023836111E0C1F398
:101E6000130211F0007F01D0C2600AE011F0806F10
:101E700001D0026105E011F0006F01D0826000E046
:101E800042607047024600200A4201D0012000E073
:101E90000020704770B504460D4600266069284250
:101EA00071D0B5F5807F68D01CDC082D41D006DCF0
:101EB000012D2CD0022D30D0042D7ED133E0102DF9
:101EC0003DD0202D41D0402D77D144E003000004C7
:101ED0000003000800000310000100080001FFF7E4
:101EE0007000F030B5F5004F61D009DCB5F5007F2A
:101EF0004AD0B5F5806F4DD0B5F5006F5DD150E09B
:101F0000B5F5803F2DD0B5F5003F56D12FE0A06844
:101F10005549FFF7B7FF064651E0E0680321FFF798
:101F2000B1FF06464BE0E0680821FFF7ABFF06462D
:101F300045E0E0681021FFF7A5FF06463FE0206975
:101F40000321FFF79FFF064639E020690821FFF7CC
:101F500099FF064633E020691021FFF793FF0646FC
:101F60002DE060680821FFF78DFF064627E06068D6
:101F70001021FFF787FF064621E0A0690121FFF746
:101F800081FF06461BE01BE0A0690221FFF77AFFF4
:101F9000064614E0A0690421FFF774FF06460EE030
:101FA0000BE0A0697021FFF76DFF064607E060684F
:101FB0000421FFF767FF064601E0002600BF00E0AE
:101FC0000026304670BDB1F5007F3AD00FDC2029E5
:101FD00028D006DC01291CD004291DD0082940D1B5
:101FE0001DE0402921D0B1F5807F3AD126E0B1F53E
:101FF000004F31D006DCB1F5806F25D0B1F5006F10
:102000002FD124E0B1F5803F12D0B1F5003F28D1A7
:1020100011E0154A826025E00822C26022E0102209
:10202000C2601FE0082202611CE01022026119E078
:102030000822426016E01022426013E0042242604F
:1020400010E0042242600DE0042242600AE0002217
:1020500082610422426005E0002282610422426023
:1020600000E000BF00BF70470101010001460020F1
:10207000FF4A106800F03800084310607047FC49C0
:10208000096821F00801FA4A116011460968014304
:1020900011607047F649096821F01001F44A116097
:1020A00011460968014311607047F248F0494860E1
:1020B000F14848607047EF48ED494860EE48486095
:1020C0007047EB48006940F08000E94908617047BB
:1020D000E748006940F08000E54908617047042046
:1020E000E349C96801F00101012901D101200EE095
:1020F000DF49C96811F0040F01D0022007E0DC4974
:10210000C96811F0100F01D0032000E004207047CF
:1021100000B502460423FFF7E2FF034603E0FFF7A2
:10212000DEFF0346521E012B01D1002AF7D102B96E
:102130000523184600BD30B5044604254FF4302071
:10214000FFF7E6FF0546042D17D1C948006940F0A6
:102150000200C749086108464461006940F0400038
:1021600008614FF43020FFF7D3FF0546C0480069EF
:1021700041F6FD710840BE490861284630BD10B5E2
:1021800004244FF43020FFF7C3FF0446042C16D17B
:10219000B748006940F00400B54908610846006985
:1021A00040F0400008614FF43020FFF7B1FF0446D3
:1021B000AF48006941F6FB710840AD49086120460F
:1021C00010BD00B502460423FFF789FF034603E074
:1021D000FFF785FF0346521E012B01D1002AF7D1DC
:1021E00002B90523184600BD10B504244FF4302071
:1021F000FFF7E7FF0446042C16D19D48006940F024
:1022000004009B4908610846006940F040000861ED
:102210004FF43020FFF7D5FF04469548006941F69A
:10222000FB71084092490861204610BD002090498A
:10223000C96911F0020F01D0012000E000207047B1
:1022400030B5A5250424FFF7F1FF00B100254FF4B8
:102250003020FFF75DFF0446042C3BD185488449BC
:102260008860854888600846006940F02000086161
:102270000846006940F0400008614FF43020FFF745
:1022800047FF0446042C1CD17948006941F6DF71F0
:102290000840774908610846006940F0100008616D
:1022A000764805804FF40050FFF732FF0446052CB6
:1022B00010D06F48006941F6EF7108406C49086121
:1022C00008E0052C06D06A48006941F6EF71084025
:1022D00067490861204630BDF0B504460D46042626
:1022E0000027F002FFF714FF0646042E22D16048B3
:1022F000006940F001005E4908612580F002FFF7A7
:1023000007FF0646042E0ED1A71C280C3880F002C9
:10231000FFF7FEFE06465648006941F6FE7108408A
:102320005349086106E05248006941F6FE710840D1
:102330004F4908613046F0BD70B504460D4604268D
:10234000F002FFF7E5FE0646042E11D14848006969
:1023500040F00100464908612580F002FFF7D8FEF1
:1023600006464348006941F6FE710840404908614D
:10237000304670BD70B505460E460424E002FFF7F6
:10238000C7FE0446042C17D13A48394988603A48B8
:1023900088600846006940F0100008612E80E00265
:1023A000FFF7B6FE0446052C06D03148006941F619
:1023B000EF7108402E490861204670BD2DE9F043B9
:1023C00004464FF6FF763746B046B1460425E4434F
:1023D000E6B2C4F30727C4F307484FEA1469E802DA
:1023E000FFF796FE0546042D3ED12248204988601D
:1023F000214888600846006940F010000861FF2EFF
:1024000006D01F4806804FF40050FFF781FE0546B6
:10241000042D08D1FF2F06D01A4807804FF4005032
:10242000FFF776FE0546042D09D1B8F1FF0F06D05F
:102430001548A0F80C88E802FFF76AFE0546042D4F
:1024400009D1B9F1FF0F06D00F48A0F80E98E802A5
:10245000FFF75EFE0546052D06D00548006941F6EA
:10246000EF710840024908612846BDE8F08300008A
:102470000020024023016745AB89EFCD00F8FF1F24
:1024800008F8FF1F0AF8FF1F00F0FF1F30B50546D0
:1024900004244FF43020FFF73BFE0446042C41D1C6
:1024A0005F4860498860604888600846006940F07D
:1024B000200008610846006940F0400008614FF4C0
:1024C0003020FFF725FE0446042C22D15548006930
:1024D00041F6DF710840534908610846006940F041
:1024E000100008611DB100205049088002E0A520BD
:1024F0004E4908804FF43020FFF70AFE0446052CB1
:1025000010D04848006941F6EF710840454908611C
:1025100008E0052C06D04348006941F6DF71084009
:1025200040490861204630BDF0B505460E461746C5
:1025300004243B483B4988603B488860E002FFF741
:10254000E7FD0446042C19D13648006940F010001C
:102550003449086147F0F800304328433449088083
:102560004FF40050FFF7D4FD0446052C06D02D484B
:10257000006941F6EF7108402A4908612046F0BD24
:102580002848C069800870472648006A70470020C4
:102590002449096811F0200F01D0012000E000203B
:1025A000704729B11F4A126902431E4B1A6104E0A9
:1025B0001C4A126982431B4B1A6170470146002076
:1025C000012908D1174AD26912F0010F01D0012068
:1025D00008E0002006E0134AD2680A4201D0012038
:1025E00000E0002070470F49C860704704200D4983
:1025F000C96801F00101012901D101200EE009495A
:10260000C96811F0040F01D0022007E00549C9682C
:1026100011F0100F01D0032000E0042070470000EB
:102620002301674500200240AB89EFCD00F8FF1F72
:1026300002F8FF1F10B50446CA48844208D10121A0
:10264000042000F024FB0021042000F020FB46E0E1
:10265000C548844208D10121082000F018FB002160
:10266000082000F014FB3AE0C048844208D1012160
:10267000102000F00CFB0021102000F008FB2EE0E1
:10268000BB48844208D10121202000F000FB00213A
:10269000202000F0FCFA22E0B648844208D1012153
:1026A000402000F0F4FA0021402000F0F0FA16E09B
:1026B000B148844208D10121802000F0E8FA0021CD
:1026C000802000F0E4FA0AE0AC48844207D10121FE
:1026D000801500F0DCFA0021A01500F0D8FA10BD3A
:1026E00010B50121084600F0D2FA0021012000F0C7
:1026F000CEFA10BD2DE9F04102460025002600204B
:1027000000230024002791F803C00CF00F0591F876
:1027100003C01CF0100F03D091F802C04CEA05056D
:10272000B1F800C01CF0FF0F31D0146800202BE07E
:102730004FF0010C0CFA00F3B1F800C00CEA0306EC
:102740009E4220D183004FF00F0C0CFA03F7BC43DC
:1027500005FA03FC4CEA040491F803C0BCF1280F0D
:1027600006D14FF0010C0CFA00FCC2F814C00AE0CC
:1027700091F803C0BCF1480F05D14FF0010C0CFAE1
:1027800000FCC2F810C0401C0828D1D31460B1F876
:1027900000C0BCF1FF0F34DD546800202EE000F1D2
:1027A000080C4FF0010808FA0CF3B1F800C00CEA6D
:1027B00003069E4221D183004FF00F0C0CFA03F761
:1027C000BC4305FA03FC4CEA040491F803C0BCF1D5
:1027D000280F05D100F1080C08FA0CF8C2F8148093
:1027E00091F803C0BCF1480F07D100F1080C4FF07D
:1027F000010808FA0CF8C2F81080401C0828CED353
:102800005460BDE8F0814FF6FF71018002218170B4
:102810000421C17070470246002093680B4201D02A
:10282000012000E0002070470146886880B27047B0
:1028300002460020D3680B4201D0012000E00020B6
:1028400070470146C86880B27047016170474161B6
:1028500070470AB1016100E041617047C160704793
:102860004FF480320A4382618161826182698269A8
:10287000704702460020424B18684FF6807318409C
:1028800040EA021008433E4B186070473D49C8615A
:102890007047F0B50A46002300240021002500F00F
:1028A0000046B6F1004F02D1354EF16901E0344ED9
:1028B0007168C0F3034583B200F44016B6F5401FBB
:1028C00008D121F070612E4E766826F070662C4F8C
:1028D0007E6012E000F48016B6F5801F06D1032654
:1028E00006FA05F4A14341F0706106E0460D360199
:1028F00003FA06F6B14341F0706122B1460D36018C
:1029000003FA06F6314300F00046B6F1004F02D15B
:102910001B4EF16101E01A4E7160F0BD30B500222E
:102920008B071C0F0F2303FA04F2154B08338C108E
:1029300053F824309343124C08348D1044F825305A
:1029400023468C1053F824308C07240F00FA04F42B
:1029500023430B4C08348D1044F8253030BD0A4910
:102960000860704700080140000C01400010014061
:102970000014014000180140001C014000200140EB
:102980000000014000002042DC002042DB480068DB
:1029900040F00100D949086008464068D84908401D
:1029A000D649486008460068D6490840D3490860BF
:1029B0000846006820F4802008600846406820F43B
:1029C000FE0048604FF41F0088607047CB490968DB
:1029D00021F48031C94A11601146096821F480212F
:1029E0001160B0F5803F03D0B0F5802F0ED106E026
:1029F000C249096841F48031C04A116007E0BF490B
:102A0000096841F4A021BD4A116000E000BF00BF89
:102A1000704710B501460022002300204A11012A08
:102A200002D1B64C236806E0022A02D1B34C236AD5
:102A300001E0B24C636A01F01F02012494401C4281
:102A400001D0012000E0002010BD70B50024002559
:102A5000002600BF3120FFF7DCFF0646641CB4F5FA
:102A6000A06F01D0002EF5D03120FFF7D2FF08B1C2
:102A7000012500E00025284670BD014600209F4A40
:102A8000106820F0F80040EAC100106070479E49CD
:102A90000860704702460020984B586820F47C106C
:102AA00042EA01031843954B5860704796490866FF
:102AB000704701460020914A506820F00300084307
:102AC000506070478D48406800F00C007047014628
:102AD00000208A4A506820F0F00008435060704798
:102AE00001460020854A506820F4E06008435060A9
:102AF000704701460020814A506820F4605040EA47
:102B0000C1005060704729B17C4A527A02437B4B26
:102B10005A7206E0794A527AC343DBB21A40774BC5
:102B20005A72704779490860704701460020734A1D
:102B3000506820F440400843506070470021744AB8
:102B400011706E4A82F82010012802D0042808D1A2
:102B500003E001216E4A117004E005216C4A1170F6
:102B600000E000BF00BF70476A49086070476349D2
:102B7000096A0143614A11627047674908607047FA
:102B800030B500210022002400235C4D6D6805F063
:102B90000C0121B1042905D0082923D105E05F4D9E
:102BA000056022E05D4D05601FE0544D6D6805F441
:102BB0007012524D6D6805F48034022505EB924287
:102BC0001CB9574D554305600BE04C4D6D6815F42D
:102BD000003F03D0524D5543056002E04F4D554331
:102BE000056002E04D4D056000BF00BF434D6D68BC
:102BF00005F0F00109094B4D6B5C0568DD4045604F
:102C00003E4D6D6805F4E061090A464D6B5C456810
:102C1000DD408560394D6D6805F46051C90A414D4C
:102C20006B5C4568DD40C560344D6D6805F440411E
:102C3000890B3D4D6B5CC568B5FBF3F5056130BD97
:102C400029B12E4A526902432C4B5A6104E02B4AA7
:102C500052698243294B5A61704729B1274A9269C8
:102C60000243264B9A6104E0244A92698243234B33
:102C70009A61704729B1214AD26902431F4BDA6138
:102C800004E01E4AD26982431C4BDA61704729B1C5
:102C90001A4AD2680243194BDA6004E0174AD26834
:102CA0008243164BDA60704729B1144A1269024315
:102CB000124B1A6104E0114A126982430F4B1A61E8
:102CC00070471A49086070470F49C86470470B493C
:102CD000C87170470948406A40F0807007494862EF
:102CE000704701460020054A92680A4201D001203F
:102CF00000E00020704701498872704700100240D0
:102D00000000FFF8FFFFF6FE00004242D8004242FA
:102D100020100240800442423C04424200127A00E9
:102D200000093D00300000204000002040044242E5
:102D300010B50446FF48844208D10121C014FFF7B2
:102D4000A6FF0021E014FFF7A2FFC4E0B4F1804F1A
:102D500008D101210846FFF7A7FF00210120FFF756
:102D6000A3FFB8E0F448844208D101210220FFF714
:102D70009BFF00210220FFF797FFACE0EF48844261
:102D800008D101210420FFF78FFF00210420FFF765
:102D90008BFFA0E0EA48844208D101210820FFF718
:102DA00083FF00210820FFF77FFF94E0E54884427D
:102DB00008D101211020FFF777FF00211020FFF735
:102DC00073FF88E0E048844208D101212020FFF70A
:102DD0006BFF00212020FFF767FF7CE0DB48844287
:102DE00008D101214014FFF752FF00216014FFF7C2
:102DF0004EFF70E0D648844209D10121C804FFF794
:102E000046FF00214FF40020FFF741FF63E0D14867
:102E1000844209D101210805FFF739FF00214FF451
:102E20008010FFF734FF56E0CB48844209D10121DE
:102E30004805FFF72CFF00214FF40010FFF727FF94
:102E400049E0C648844208D101214020FFF72CFF09
:102E500000214020FFF728FF3DE0C148844208D10F
:102E600001218020FFF720FF00218020FFF71CFFB9
:102E700031E0BC48844208D101218015FFF714FFDE
:102E80000021A015FFF710FF25E0B748844209D1C3
:102E900001210804FFF7FBFE00214FF48030FFF70B
:102EA000F6FE18E0B148844209D101214804FFF739
:102EB000EEFE00214FF40030FFF7E9FE0BE0AC48D6
:102EC000844208D101218804FFF7E1FE00214FF47C
:102ED0008020FFF7DCFE10BD00220288954B98424F
:102EE0000ED09A4B98420BD0B0F1804F08D0924B45
:102EF000984205D0914B984202D0914B984204D110
:102F00004FF68F731A404B881A438E4B984207D066
:102F10008D4B984204D04FF6FF431A40CB881A439A
:102F200002808B8883850B880385824B98420BD067
:102F3000864B984208D08C4B984205D08B4B9842D8
:102F400002D08B4B984201D10B7A038601238382F6
:102F5000704770B5002400220023058C4FF6FE76E2
:102F600035400584028C8388048B4FF68F752C4086
:102F7000B51E2C400D882C43751E2A400D892A430E
:102F80004D882A436B4DA8420BD0704DA84208D003
:102F9000754DA84205D0754DA84202D0744DA84287
:102FA00013D14FF6F7752A404D892A434FF6FB752A
:102FB0002A408D882A434FF6FF652B404FF6FF5578
:102FC0002B408D892B43CD892B4383800483CD886F
:102FD0008586028470BD70B5002400220023058C14
:102FE0004FF6EF7635400584028C8388048B48F6D3
:102FF000FF752C404FF6FF452C400D882D0644EA06
:1030000015444FF6DF752A400D892D0542EA154219
:103010004D882D0542EA1542464DA84202D04B4D3F
:10302000A8421BD14FF67F752A404D892D0542EAF3
:1030300015424FF6BF752A408D882D0542EA15428C
:103040004FF6FF352B404FF2FF752B408D89AD04B5
:1030500043EA1543CD89AD0443EA154383800483D5
:10306000CD880587028470BD70B50024002200233E
:10307000058C4FF6FF6635400584028C8388848B6F
:103080004FF68F752C404FF6FC752C400D882C4365
:103090004FF6FF552A400D892D0642EA15424D880C
:1030A0002D0642EA1542234DA84202D0274DA842E0
:1030B0001BD14FF2FF752A404D892D0642EA154279
:1030C0004FF6FF352A408D882D0642EA15424EF60E
:1030D000FF752B404DF6FF752B408D892D0543EA7A
:1030E0001543CD892D0543EA154383808483CD881C
:1030F0008587028470BD70B5002200230024058CF2
:103100004EF6FF7635400584038C8488828B48F622
:10311000FF752A404FF6FF452A400D882D0642EAEA
:1031200015424DF6FF752B400D892D0743EA1543D7
:103130004D881FE0002C01400004004000080040C2
:10314000000C00400010004000140040003401401A
:10315000004C014000500140005401400018004064
:10316000001C00400020004000400140004401409D
:10317000004801402D0743EA1543F94DA84202D00B
:10318000F84DA84206D14BF6FF752C408D89AD0550
:1031900044EA154484808283CD88A0F8405003849B
:1031A00070BD828B4FF2FF331A408283828B0B06F5
:1031B00042EA134282837047F0B50C46154600225E
:1031C00000210026078C4EF6FF7C07EA0C070784D7
:1031D000828B018C27073E0C40F6FF473A402F06B2
:1031E00042EA17421F0742EA1742DD4FB8420ED0AB
:1031F000DC4FB8420BD0B0F1804F08D0DA4FB84264
:1032000005D0DA4FB84202D0D94FB84206D14DF6B8
:10321000FF77394046F48057394305E047F6FF57BA
:10322000394044F48057394382830184F0BD828B56
:103230004FF6F3731A408283828B0A43828370476E
:10324000F0B50C461546002200210026078C4FF6EB
:10325000FF6C07EA0C070784828B018C27063E0C63
:103260004FF60C773A401F0545EA17473A43BC4FE3
:10327000B8420ED0BB4FB8420BD0B0F1804F08D04F
:10328000B94FB84205D0B94FB84202D0B84FB84292
:1032900006D14FF6FF57394046F48077394305E0B1
:1032A0004FF2FF57394044F48077394382830184D9
:1032B000F0BD028B4FF2FF331A400283028B0B06E4
:1032C00042EA134202837047F0B50C4615460022CD
:1032D00000210026078C4FF6EF7C07EA0C070784D5
:1032E000028B018C27053E0C40F6FF473A401F0732
:1032F00042EA17422F0642EA1742994FB8420ED0CF
:10330000984FB8420BD0B0F1804F08D0964FB842DA
:1033100005D0964FB84202D0954FB84206D14FF62D
:10332000DF77394046F01007394305E04FF65F7705
:10333000394044F01007394302830184F0BD028B09
:103340004FF6F3731A400283028B0A4302837047DD
:10335000F0B50C46154600220021068C4FF6FE778C
:103360003E400684028B018C4FF60C7632401E05DF
:1033700045EA164632437A4EB0420ED0794EB042FC
:103380000BD0B0F1804F08D0774EB04205D0774EC9
:10339000B04202D0764EB04206D14FF6FD763140B3
:1033A00044F00106314305E04FF6F576314044F034
:1033B0000106314302830184F0BD70B505460C4619
:1033C000674885420ED0674885420BD0B5F1804FE3
:1033D00008D06548854205D06448854202D06448DB
:1033E000854200D100E000BF208850B92389A2881F
:1033F00061882846FFF7ACFFE1882846FFF79FFF6A
:1034000025E0208804280AD12389A28861882846DB
:10341000FFF75AFFE1882846FFF74BFF17E02088A7
:1034200008280AD12389A28861882846FFF708FF67
:10343000E1882846FFF7FBFE09E02389A28861881E
:103440002846FFF7B9FEE1882846FFF7AAFE70BDBF
:103450002DE9F04105460C4600260127608808B991
:10346000022600E00026A088012801D1022700E002
:1034700001272088A0B92389A28861882846FFF700
:1034800067FFE1882846FFF75AFF23893A4631460D
:103490002846FFF719FFE1882846FFF70AFF13E0E7
:1034A0002389A28861882846FFF70EFFE188284615
:1034B000FFF7FFFE23893A4631462846FFF748FFCB
:1034C000E1882846FFF73BFFBDE8F0810A884B887A
:1034D0001A438B881A43CB881A430B891A434B89AA
:1034E0001A438B891A43A0F8442070474FF6FF71A6
:1034F000818000210180C1804180017270470021DC
:10350000018041808180C180018141818181C181AF
:103510007047002101804180012181800021C1800C
:10352000018170470021018041808180C18001813B
:1035300041818181704721B1028842F001020280FD
:1035400004E002884FF6FE731A400280704789B18A
:10355000B0F8442042F40042A0F8442010E00000FB
:10356000002C0140003401400004004000080040ED
:10357000000C0040B0F84420C2F30E02A0F8442032
:10358000704710B51AB183890B43838104E08389A6
:10359000CC43A4B22340838110BD8182704741EAAD
:1035A0000203A0F84830704710B51AB183890B4365
:1035B000838104E08389CC43A4B22340838110BD7E
:1035C00001894FF6F8721140018170470A460021C7
:1035D00001894FF68F73194011430181704730B54F
:1035E00004460D4629462046FFF7F0FF208940F0AB
:1035F0000700208130BD2DE9F04104460D461646F6
:103600001F46602D06D13B46012231462046FFF77A
:103610005BFE05E03B46012231462046FFF798FE5F
:1036200029462046FFF7D2FF208940F0070020817D
:10363000BDE8F08130B50C4600210189C9B21D06F4
:1036400042EA154525432943018130BD2DE9F0416A
:1036500005460E4617469846002443463A463146EC
:103660002846FFF7E7FF2C894FF6F8710C4044F02D
:1036700007044FF68F710C4044F070042C81BDE8B4
:10368000F081F0B504460D4616461F463B463246CD
:1036900029462046FFF7CEFF208940F48040208154
:1036A000F0BD0185828270470A46002101884FF6ED
:1036B0008F731940114301807047F0B50C461546D1
:1036C0001E460021002200230189028B038C4FF645
:1036D000F877394021434FF6FC473A4040F2011752
:1036E0003A434FF6DD773B40370545EA17473B4302
:1036F000018102830384F0BD0A460021018B4FF64D
:103700008F7319401143018370470A460021018BD2
:1037100048F6FF731940130641EA134101837047CD
:103720000A460021818B4FF68F7319401143818324
:1037300070470A460021818B48F6FF731940130633
:1037400041EA13418183704721B1028842F080022F
:10375000028004E002884FF67F731A4002807047AF
:1037600021B1828842F00402828004E082884FF610
:10377000FB731A408280704721B1828842F00802B0
:10378000828004E082884FF6F7731A408280704787
:1037900021B1828842F00102828004E082884FF6E3
:1037A000FE731A40828070470A460021018B4FF653
:1037B000F77319401143018370470A460021018BBA
:1037C0004FF2FF731940130641EA1341018370471A
:1037D0000A460021818B4FF6F7731940114381830C
:1037E00070470A460021818B4FF2FF731940130680
:1037F00041EA1341818370470A460021018B4FF64D
:10380000FB7319401143018370470A460021018B65
:103810004FF6FF331940130641EA13410183704705
:103820000A460021818B4FF6FB73194011438183B7
:1038300070470A460021818B4FF6FF33194013066B
:1038400041EA1341818370470A460021018B4FF6FC
:103850007F7319401143018370470A460021018B91
:10386000C1F30E01130641EA1341018370470A4672
:103870000021818B4FF67F7319401143818370477C
:103880000A460021818BC1F30E01130641EA134160
:10389000818370470A460021018C4FF6FD73194061
:1038A0001143018470470A460021018C4FF6F773DB
:1038B00019401143018470470A460021018C4FF6DC
:1038C000DF731940130541EA1341018470470A462A
:1038D0000021018C4FF67F731940130541EA134113
:1038E000018470470A460021018C4FF6FF531940AE
:1038F000130641EA1341018470470A460021018CF6
:103900004FF2FF731940130641EA134101847047D7
:103910000A460021018C4DF6FF731940130741EA56
:1039200013410184704730B5002301248C40A3B2B9
:10393000048CDD43ADB22C400484048C02FA01F502
:10394000ADB22C43048430BD30B5002304248C4038
:10395000A3B2048CDD43ADB22C400484048C02FA83
:1039600001F5ADB22C43048430BD70B50346002090
:1039700000241846183001258D40ACB21D8CE6435A
:10398000B6B235401D8409B1082909D100EB6100A8
:10399000056825F0700505600568154305600CE0B5
:1039A0000D1FADB200EB6500056825F4E04505602C
:1039B0000568160645EA1645056070BD21B1028806
:1039C00042F00202028004E002884FF6FD731A40C2
:1039D0000280704721B1028842F00402028004E0B4
:1039E00002884FF6FB731A400280704721B182882B
:1039F00042F08002828004E082884FF67F731A4092
:103A00008280704702884FF6F7731A40028002885E
:103A10000A430280704782884FF68F731A40828073
:103A200082880A438280704702894FF6F8731A40F1
:103A3000028102890A430281704702894FF67F732F
:103A40001A40028102890A430281704781847047CB
:103A500081857047818670470187704781877047ED
:103A6000A0F84010704702884FF6FF431A400280CA
:103A700002880A43028070470146888E70470146DB
:103A8000088F70470146888F70470146B1F84000A3
:103A900070470146888C70470146088D7047024682
:103AA0000020138A0B4201D0012000E00020704763
:103AB000CA430282704730B502460020002300242A
:103AC000158A05EA0103958905EA010413B10CB1D1
:103AD000012000E0002030BDCA4302827047000090
:103AE00010B50446FC48844209D101218803FFF740
:103AF000CEF800214FF48040FFF7C9F832E0F748D4
:103B0000844209D101214804FFF7CEF800214FF487
:103B10000030FFF7C9F825E0F148844209D10121BE
:103B20008804FFF7C1F800214FF48020FFF7BCF8AC
:103B300018E0EC48844209D10121C804FFF7B4F829
:103B400000214FF40020FFF7AFF80BE0E648844275
:103B500008D101210805FFF7A7F800214FF48010D4
:103B6000FFF7A2F810BD2DE9F04786B005460E46D6
:103B70000024A24600BFA1460027B08900B100BFC3
:103B80002F462C8A4CF6FF700440F08804432C82A8
:103B9000AC894EF6F3100440B0883189084371892E
:103BA00008430443AC81AC8A4FF6FF400440B0891F
:103BB0000443AC8201A8FEF7E3FFC748874202D165
:103BC000DDF810A001E0DDF80CA0A88910F4004F8A
:103BD00008D00AEBCA0000EB0A1031684900B0FBBC
:103BE000F1F807E00AEBCA0000EB0A10316889001F
:103BF000B0FBF1F86420B8FBF0F004012009642167
:103C000001FB1089A88910F4004F08D0322000EB86
:103C1000C900B0FBF1F000F00700044308E03220D7
:103C200000EB09106421B0FBF1F000F00F00044339
:103C30002C8106B0BDE8F0874FF4165101600021D9
:103C40008180C18001810C214181002181817047E7
:103C500010B502460020108A4FF2FF0318400B886F
:103C60004C8823438C882343CC88234318431082F9
:103C700010BD0021018041808180C180704721B149
:103C8000828942F40052828104E082894DF6FF73FA
:103C90001A4082817047F0B50346002400260025B3
:103CA0000020A1F510676A3F00D100BF1846C1F39C
:103CB000421401F01F06012707FA06F5012C01D175
:103CC0000C3004E0022C01D1103000E014301AB1A5
:103CD00007682F43076002E00768AF430760F0BD45
:103CE00010B51AB1838A0B43838204E0838ACC43E4
:103CF000A4B22340838210BD028A4FF6F0731A40AB
:103D00000282028A0A430282704782894FF2FF735D
:103D10001A40828182890A438281704721B1828957
:103D200042F00202828104E082894FF6FD731A405C
:103D300082817047028A4FF6DF731A400282028A3C
:103D40000A430282704721B1028A42F48042028211
:103D500004E0028A4BF6FF731A4002827047C1F3F7
:103D600008028280704701468888C0F308007047C7
:103D7000818941F0010181817047028BD2B20283B7
:103D8000028B42EA012202837047028B02F47F42D7
:103D90000283028B0A430283704721B1828A42F078
:103DA0002002828204E0828A4FF6DF731A40828208
:103DB000704721B1828A42F01002828204E0828A36
:103DC0004FF6EF731A408282704721B1828A42F027
:103DD0000802828204E0828A4FF6F7731A408282D8
:103DE000704721B1828942F40042828103E08289D6
:103DF000C2F30E028281704721B1828A42F40062CE
:103E0000828204E0828A4FF2FF731A4082827047F6
:103E1000828A4FF6FB731A408282828A0A43828228
:103E2000704721B1828A42F00202828204E0828AD3
:103E30004FF6FD731A408282704702460020B1F5AA
:103E4000007F00D100BF13880B4201D0012000E0A9
:103E50000020704701F40072B2F5007F00D100BF6E
:103E6000CA430280704770B5024600240023002533
:103E70000020A1F510666A3E00D100BFC1F34215D3
:103E800001F01F03012606FA03F3012D02D19689E2
:103E9000334006E0022D02D1168A334001E0968AB3
:103EA00033400C12012606FA04F41688344013B18C
:103EB0000CB1012000E0002070BD10B500220023ED
:103EC000A1F510646A3C00D100BF0A12012494409D
:103ED000A3B2DC43048010BD003801400044004020
:103EE00000480040004C00400050004010B5024621
:103EF00000200BE000BF124B1B8813F0800FFAD09C
:103F0000135C104C238000F1010398B28842F1DB6E
:103F100010BD0FB410B5B4B037A80190C82102A8E5
:103F200000F082F902A8019A369900F06BF984B288
:103F3000214602A8FFF7DAFF34B010BC5DF814FB8D
:103F4000004400400444004008B54FF40060ADF860
:103F5000000003208DF8020004208DF8030069465C
:103F6000A248FEF7C7FB4FF48050ADF800001820C0
:103F70008DF8030069469D48FEF7BCFB0420ADF8B0
:103F8000000003208DF8020018208DF80300694618
:103F90009648FEF7AFFB0820ADF8000004208DF82E
:103FA000030003208DF8020069469048FEF7A2FB4B
:103FB0003C20ADF8000010208DF8030003208DF8A0
:103FC000020069468A48FEF795FB08BD10B5FEF76A
:103FD000DDFC4FF48030FEF7F9FCFEF736FD854935
:103FE000087008460078012826D11020FEF752F804
:103FF0000220FEF73BF80020FEF769FD0020FEF7E7
:1040000078FD4FF48060FEF76BFD4FF4E0114FF444
:104010008030FEF73FFD0120FEF748FD00BF39204C
:10402000FEF7F7FC0028FAD00220FEF742FD00BFA1
:10403000FEF748FD0828FBD101214520FEF70DFEC3
:1040400001216D48FEF716FE10BD00B587B06B4824
:10405000FDF702FB04A8FDF723FC00208DF81600F5
:104060008DF817008DF818008DF819008DF81A00DA
:104070008DF81B008DF812008DF8130003208DF8C9
:10408000140002208DF815000920ADF8100004A9D5
:104090005A48FDF7FAFA00208DF80A008DF80B0057
:1040A00001208DF80C000020ADF80000ADF80200F2
:1040B000ADF80400ADF80600ADF8080001208DF859
:1040C0000D006846FDF76FFB012202214B48FDF70A
:1040D0007AFE07B000BD1FB54FF4165000900020C7
:1040E000ADF80400ADF80600ADF80800ADF80C001E
:1040F0000C20ADF80A0069464148FFF734FD012164
:104100003F48FFF7BCFD1FBD08B54FF4E060FDF769
:1041100027FA14208DF8000000208DF801008DF89A
:10412000020001208DF803006846FDF71EFA1C20EE
:104130008DF8000000208DF8010001208DF80200AC
:104140008DF803006846FDF710FA1D208DF8000079
:1041500000208DF8010002208DF8020001208DF86A
:1041600003006846FDF701FA1E208DF800000020CC
:104170008DF8010003208DF8020001208DF8030066
:104180006846FDF7F2F932208DF8000000208DF826
:10419000010004208DF8020001208DF8030068461C
:1041A000FDF7E3F908BD014601EBC1024FF0E02342
:1041B0005A6100229A6101221A6100BF4FF0E02289
:1041C000106910F0010F02D010F4803FF6D00022E9
:1041D0004FF0E0231A619A61704710B504464FF41E
:1041E0007A7104FB01F0FFF7DEFF10BD000801400B
:1041F0000010014044000020000002020064004062
:10420000004400401CB50C46064B7B4469460090B8
:10421000204600F0ECF804460020694600F0FAF869
:1042200020461CBD070200004FF0000200B51346F7
:1042300094469646203922BFA0E80C50A0E80C50C6
:10424000B1F12001BFF4F7AF090728BFA0E80C5077
:1042500048BF0CC05DF804EB890028BF40F8042B70
:1042600008BF704748BF20F8022B11F0804F18BFDD
:1042700000F8012B704770477047704770B50446CF
:10428000856900683026C10600D42026C00708D002
:1042900070BDD4E9012130469047206A00F1010049
:1042A00020626D1EF5D570BD70B504468569006845
:1042B000C00708D170BDD4E9012120209047206AB1
:1042C00000F1010020626D1EF5D570BD09684A0538
:1042D00001D540B27047C905FCD500B270470968E6
:1042E0004A0501D5C0B27047C905FCD580B27047F8
:1042F00070B505460C46012A05D02868800600D511
:10430000EA69002302E0012305E05B1C934202D22C
:10431000E05C0028F9D1A869E618C01AA861286AEB
:10432000184428622846FFF7A9FF04E0D5E90121D7
:1043300014F8010B9047B442F8D32846FFF7B4FFB6
:1043400070BD00002DE9F0418046002610687529F7
:10435000414615A512D0FFF7B9FF002803DAC0F1D6
:10436000000012A508E0D8F800108A0701D510A5B2
:1043700002E0490704D50FA5012601E0FFF7AFFFD2
:10438000002408F1240704E000F02EFD30313955F7
:10439000641C0028F8D133462A4621464046BDE831
:1043A000F04100F074BA0000000000002D00000091
:1043B0002B0000002000000011680268006A53050D
:1043C00001D508700BE0D30501D5088007E013067E
:1043D00003D5C217C1E9000201E0520608600120BE
:1043E0007047000001694A1C02610878704700B5F7
:1043F0008FB0CDE901310021059105497944CDE91E
:1044000003101146684600F02FF90FB000BD000000
:10441000E5FFFFFF0A6802F8010B0A607047000021
:104420002DE9FF5F04468A461546DFF8AC80F84464
:104430000027D8E900103E46CDE9001011E03AF817
:1044400016106A4602A800F0AFFC411C07D0216894
:10445000890603D5E269391891420ED8074406F15E
:1044600001062068800602D5E069B84205DDAE424B
:10447000E5DB3AF816000028E1D1A069C01BA06175
:104480002046FFF7FBFED8E90010CDE90010002020
:1044900016E03AF818106A4602A800F085FC81463A
:1044A000401C0BD000250DF1080B05E0D4E90121DB
:1044B0001BF8050090476D1C4D45F7D308F101002E
:1044C000B0428046E5DB206A384420622046FFF790
:1044D000EBFEBDE8FF9F0000922300002DE9F041B4
:1044E0008046D21D22F007020026D2E90002F529FB
:1044F00014A512D0002A06DA0023D0EB030063EBE8
:10450000020211A508E0D8F800108B0701D50FA50D
:1045100002E0490701D50EA501261146002408F145
:10452000240704E000F06EF930323A55641C50EA7A
:104530000102F7D133462A4621464046BDE8F04104
:1045400000F0A5B9000000002D0000002B000000C5
:104550002000000030B4002100F124040CE002F03F
:10456000070505F130054FEAD20242EA437265546D
:1045700001F101014FEAD30352EA0305EFD10468C8
:10458000002310A2250708D504F020040C4304D012
:10459000C46901230CA2641EC46130BC00F077B969
:1045A00010B5044621461068FFF799FE02462046E2
:1045B000BDE810400023CDE7D21D22F00701D1E96C
:1045C0000023C7E70000000030000000F0B40F46F1
:1045D0000168090502D5234C7C4402E0214C7C444F
:1045E0000E34002100F124050BE002F00F064FEA23
:1045F0001212A65D42EA03724FEA13136E5401F1E0
:10460000010152EA0306F0D1224604680023240780
:1046100004D5702F05D009B111320223F0BC00F08F
:1046200036B910320123F9E770B504460D4621462C
:104630001068FFF754FE024629462046BDE8704048
:104640000023C3E7D21D22F00703D3E90023BDE70F
:104650000368126843F0200303600823C36100234A
:10466000B4E70000F02100002DE9F05F4FF0000BEF
:10467000054689464FF0010AC0F820B02846E9688F
:10468000884798B3252806D0D5E901219047286AA4
:10469000401C2862F2E75A4F00267F442846E9680A
:1046A00088472028044608DB312C06D207EB04009B
:1046B00010F8200C08B10643F0E7B00701D526F04A
:1046C0000406C5F81CB00027C5F818B02A2C0ED077
:1046D0005246A4F130010A292ED2BAF1000F2BD094
:1046E000924605EB8708C8F818101AE084E059F8DC
:1046F000041B284605EB87029161E9688847012F72
:1047000004461BD1E869002823DA26F0200620E0C1
:10471000D8F8180000EB800004EB40003038C8F8EF
:1047200018002846E9688847A0F1300104460A29A4
:1047300002D2BAF1000FEBD1012F0AD02E2C08D1F2
:104740002846E96888477F1C0446022F46F0200669
:10475000BCDBA869002803DA404246F00106A861E4
:10476000F00701D026F010066C2C0AD0682C08D077
:104770004C2C34D06A2C32D0742C30D07A2C2ED0E1
:1047800015E0E968274628468847B842044609D11B
:1047900080206C2F00D0C000E96806432846884777
:1047A000044604E040206C2F00D0800006431CB378
:1047B000A4F14100192802D8203446F400664A4684
:1047C000214628462E604E46FBF7ECFC90B10128AE
:1047D0000DD0F61D26F0070000F108094EE74C2C1D
:1047E0005846D9D080206A2CD6D00020D4E706F1D4
:1047F000040943E7204647E7286ABDE8F09F000028
:104800005621000030B5B0F10A024FEA900E71F166
:1048100000034EEA817EB0EB0E0061EB91014FEA9E
:10482000101E4EEA017E10EB0E0041EB11114FEA13
:10483000102E4EEA016E10EB0E0041EB11214FEAF3
:10484000104E4EEA014E10EB0E0041EB11414018A4
:1048500041F100014FEAD00040EA41704FEAD10136
:1048600010EB80054FEA810444EA907444EB0104A4
:104870006D1944EB0404521BA3414FF0000348BFE1
:104880000A3200D530BD401C41F1000130BD2DE998
:10489000F0470D4604469246994600F12408016807
:1048A000880604D5E06921F01001216000E00120B4
:1048B0000027A84201DDA0EB0507A16907EB05026F
:1048C00002EB0300A1EB0000A0612068C00602D447
:1048D0002046FFF7D3FC002608E0D4E901211AF8AE
:1048E00006009047206A401C761C20624E45F4DB8F
:1048F0002068C0060AD52046FFF7C0FC06E0D4E9D0
:10490000012130209047206A401C2062381EA7F108
:104910000107F4DC07E0D4E9012118F8050090470D
:10492000206A401C2062281EA5F10105F3DC204608
:10493000FFF7BAFC21680220090600D40120BDE877
:10494000F08770472DE9FF4F0C461E464FF0FF37AA
:1049500089B0D2E90001DDF8588006908946C1F39C
:104960000A5505B93D46002108464FF00000B9F14F
:10497000000F00F4400005DA00EB80004FF4400126
:1049800001EA50004FEA905ABAF1010F00DDBA4631
:10499000069850EA49002CD044F61050A5F2FF3595
:1049A0004543CAF1000008902F14B8F1000F39D028
:1049B0007542089A291E00DC524600DA694203A8B3
:1049C00000F08CFA0699484600F055FB8DE8070088
:1049D000A0F500501F3800900398002D25DD42F20D
:1049E0001F015246084403A90390684600F0B4FD35
:1049F00024E0B8F1010F4FF0000001D1F24307E0CD
:104A0000302101E02154401CB042FBDB3046002243
:104A1000002121540999C1F80880C1E900200DB096
:104A2000BDE8F08FBD1B6D1CC3E7A0F500505246DA
:104A30001F3803A90390684600F0A2FD8DE8070027
:104A40000004000C03D04FF0FF30410800E0104696
:104A5000B8F1000F03D00022009215461FE0751E2A
:104A600006D4FFF7CFFE02F1300262556D1EF8D575
:104A7000B3460122084302D000227F1C04E02078C4
:104A8000302801D100227F1E002A07978DD01DE01B
:104A9000112D07DAFFF7B6FE303262556D1C50EA71
:104AA0000102F5D108430FD10021681E05E0235C07
:104AB000625C6354491C2254401E8142F7DBAB46C2
:104AC000A81B401E079001E0009848B1002004F8A0
:104AD0000B000998079AC0F80880C0E9002B9EE7F0
:104AE00011264FF0000860E72DE9F04F8846044694
:104AF000D21D22F0070191B0D1E90001CDE90C01EE
:104B000000F074FE02460D98C10F4FF02D0006D143
:104B100021682B208B0702D4202000EAC100032A41
:104B2000834601D0072A05DB03464146204600F0B4
:104B300097F90AE12068800601D5E76900E00627B9
:104B40001120B8F1650F06D0B8F1660F11D0B8F199
:104B5000670F67D128E00023112F009300DA781C3B
:104B600003460CAA01A909A8FFF7ECFE00267D1C4C
:104B70003FE001234FF000490CAA01A909A80093C6
:104B80003B46FFF7DFFEDDE90A50002620B9099910
:104B900007F1010001EB0005781B02D47D1CC0F178
:104BA000FF36A5EB070A3DE0012F00DA01270023BD
:104BB000112F009300DC384603460CAA01A909A86E
:104BC000FFF7C0FE20683D46002600070BD40A9878
:104BD000A84200DA054601A8012D04DD411911F8AB
:104BE000011C302909D00998B84202DA10F1040FEB
:104BF00005DA4FF0010A099813E06D1EECE7002872
:104C000002DC2D1A064405E0401CA84202DD099D85
:104C100005F101050998A0EB060000F1010A4FF02B
:104C2000004081462068000703D4AA4501DB4FF00D
:104C3000FF3A0020B9F1004F0DF13F078DF83F001A
:104C400024D04FF002082B20B9F1000F00900BDAAE
:104C50002D20C9F10009009006E0484600F0C4F894
:104C60003031814607F8011DB8F10001A8F10108B3
:104C7000F3DCB9F1000FF0D1009807F8010D2168BD
:104C80004520090500D4652007F8010D0EA8A0EB0A
:104C9000070000F107085FEA0B0000D0012000EBDD
:104CA000050101EBEA7101EB0800A169A1EB00002D
:104CB000A0F10100A0612068C00602D42046FFF7E1
:104CC000DDFA5FEA0B0006D0D4E901219047206AA3
:104CD00000F1010020622068C00621D52046FFF7C0
:104CE000CDFA1DE0002E05DB0A98B04202DD01A8D6
:104CF000805D00E03020D4E901219047206A761CD5
:104D0000401CBAF1010A20620AD100F0A3F8C06881
:104D10000168405CD4E901219047206A401C206270
:104D2000281EA5F10105DDDC07E0D4E9012117F813
:104D3000010B9047206A401C2062B8F10001A8F1E5
:104D40000108F2DC2046FFF7AFFA022011B067E657
:104D500010B5436913B1AFF3008001E0FFF7C8FA63
:104D6000012010BD126800F124010A7000224A706F
:104D70000122EDE711684FF0FF32E9E710B5436912
:104D800013B1AFF3008001E0FFF74AFB012010BD33
:104D9000126800F1240182840022C2840122EDE71E
:104DA00011684FF0FF32E9E770B505460C4616462C
:104DB00000F048F8036893F80101012806D0FF2CA1
:104DC0000FD8185D68B101202C7070BDD3F80701B1
:104DD0003246214603442846BDE8704003F20713DB
:104DE00018474FF0FF3070BD4FF00A01B0FBF1F2F1
:104DF00002FB110110467047754600F0EBF8AE4615
:104E000005006946534620F00700854618B020B5D6
:104E1000FCF794FBBDE820404FF000064FF0000780
:104E20004FF000084FF0000B21F00701AC46ACE852
:104E3000C009ACE8C009ACE8C009ACE8C0098D46BF
:104E40007047000010B500F005F8001D10BD00BF50
:104E5000F109000001487047704700BF8009002039
:104E60002DE9F04104461F4603260168072A01F494
:104E7000006003DB15A520B915A502E015A500B952
:104E800015A521F010002060A069C01EA0610FB11F
:104E9000401EA0612046FFF7F1F94FB1D4E901218E
:104EA00038469047206A401C2062C01C206206E001
:104EB000206AFAE7D4E9012115F8010B9047761E24
:104EC000F8D22046FFF7F0F9BDE8F0814E414E00E0
:104ED0006E616E00494E4600696E66002DE9F0472E
:104EE000814616468AB037487844D0E90023806866
:104EF0000092CDE90130334878440C38D0E90223E0
:104F000000690392CDE9043041F69B334FF037003E
:104F100001EB0302194492FBF0F591FBF0F2A5F1CD
:104F2000800500FB12141B3C02D56442012000E006
:104F30000020DFF890A080460027FA44AAF1CE0AAC
:104F40000DE0E00709D03246684607EB47010AEB5F
:104F5000810100F015FB8DE8070064107F1C002C18
:104F6000EFD1184F7F44BC3F17E0E80713D007EBA1
:104F700004100DF1180A90E80E00AAE80E00C068AF
:104F8000F04201D198190890324606A903A800F012
:104F9000F7FA03AB07C36D10641C002DE5D1324650
:104FA0006946B8F1000F03A802D000F0D5FA01E07D
:104FB00000F0E6FAC9E90001C9F808200AB0BDE826
:104FC000F0870000981900000446AFF300802046E7
:104FD000FBF74DF900487047600900204FF0013C95
:104FE00050F8042B51F8043B9A4221D1A2EB0C0358
:104FF000934313EACC1317D150F8042B51F8043B18
:105000009A4215D1A2EB0C03934313EACC130BD1B4
:1050100050F8042B51F8043B9A4209D1A2EB0C033F
:10502000934313EACC13DBD04FF00000704700BF6E
:10503000D01A01BAB1FA81F101F0180122FA01F097
:10504000CB40C1F12001DBB2C0B2C01A2CFA01F38F
:10505000D11A914311EAC311E6D170470148704754
:10506000704700BF6409002001491820ABBEFEE76D
:105070002600020070475FEA400C08BF91F0000F65
:105080004FEA8C234FEAC12243EA51514FEA1C50A8
:1050900018BF00F5F0404FEA300018BF41F0004162
:1050A0005FEA6C5C00F02980BCF1FF3F08BF40F074
:1050B00080407047130C06BF12044FF0100C4FF0E5
:1050C000000C130E04BF12020CF1080C130F04BFE6
:1050D00012010CF1040C930F04BF92000CF1020CAE
:1050E000D30F04BF52000CF1010C11464FF0000227
:1050F000A0F11F00A0EB0C00704711F0004F08BF9B
:10510000704731F000413FF4D5AF0B0C06BF0904E6
:105110004FF0100C4FF0000C0B0E04BF09020CF105
:10512000080C0B0F04BF09010CF1040C8B0F04BF1A
:1051300089000CF1020CCB0F04BF49000CF1010CEB
:10514000CCF12003A0EB0C0022FA03F302FA0CF2DC
:1051500041EA030100F10100704720F07F4C80EA32
:10516000030023F07F47ACEB070303F57C5300F00B
:10517000004003F1FF032DE980494FEA154B09B4C4
:105180004FEA144325EA0B4E24EA03480FF20426A3
:1051900006EB132749083E785FEA320203FB0667F5
:1051A000C7F5000707FB06F64FEA54374FEAD64625
:1051B00006F1020607FB066CCCF1005C4FEA1C47C7
:1051C0002CEA074C07FB06F40CFB06F504EB15462E
:1051D0004FEA961634BF00204FF000404FEAD13717
:1051E00006FB07FC4FEA1C4C0CFB0BF7D21B03FB26
:1051F0000CF761EB07010CFB0EF7B0EB074072EB0D
:1052000017420CFB08F734BFA2EB0742B2EB074290
:1052100061EB17414FEA0C444FEA910706FB07FC8C
:105220004FEA1C4C0CFB0BF7B0EBC74072EB57324C
:1052300003FB0CF734BFA2EBC742B2EBC74261EBF2
:1052400057310CFB0EF7B0EBC70072EB57720CFB3B
:1052500008F734BFA2EBC702B2EBC70261EB57718C
:10526000039F4FEA816141EA921104EBCC044FEABB
:10527000D1374FEA826206FB07FC42EA90124FEAFE
:1052800080604FEA1C4C0CFB0BF7D21B03FB0CF7A6
:1052900061EB07010CFB0EF7B0EB074072EB174216
:1052A0000CFB08F734BFA2EB0742B2EB074261EBFD
:1052B00017414FEA8C554FEA910704EB9C2406FBFB
:1052C00007FC4FEA1C4C0CFB0BF7B0EBC74072EB32
:1052D000573203FB0CF734BFA2EBC742B2EBC74215
:1052E00061EB57310CFB0EF7B0EBC70072EB577256
:1052F0000CFB08F734BFA2EBC702B2EBC70261EBAD
:10530000577115EB4C254FEA816141EA92114FEA42
:1053100082624FEAD13742EA901206FB07FC44F161
:1053200000044FEA80604FEA1C4C0CFB0BF7D21BC9
:1053300003FB0CF761EB07010CFB0EF7B0EB07402A
:1053400072EB17420CFB08F734BFA2EB0742B2EB3B
:10535000074261EB174115EB1C154FEA813141EA19
:1053600092414FEA823242EA90424FEA80304FEA5D
:105370000C7644F1000448EA03434EEA0B484FF030
:10538000000EB2EB080C71EB030724BF62463946EE
:105390004EEB0E0E4FF0000B0018524149414BEB03
:1053A0000B0BB2EB080C71EB03077BF1000B24BF76
:1053B000624639464EEB0E0E4FF0000B001852417C
:1053C00049414BEB0B0BB2EB080C71EB03077BF184
:1053D000000B24BF624639464EEB0E0E51EA02071F
:1053E00018BF46F0010616EB0E7655F1000254F197
:1053F000000103D5BDE88901BDE80088BDE8890149
:10540000BDE80048B619524141EB0101A3F1010387
:10541000704780807F7E7D7C7B7A79787776767521
:105420007473727171706F6E6E6D6C6C6B6A6A6999
:105430006868676666656464636362616160605F33
:105440005F5E5E5D5D5C5C5B5B5A5A5959585857AC
:105450005756565555555454535352525251515014
:1054600050504F4F4F4E4E4D4D4D4C4C4C4B4B4B67
:105470004A4A4A49494948484847474747464646AD
:1054800045454544444444434343434242424241E8
:105490004141002B26D4770021D01CB54FEA3707B5
:1054A00003B44FF010004FF010014FF000000FBC9C
:1054B000BDE810400BF1010BBBF1010F08BF5FEA23
:1054C000170722BF12F1010211F101014FF0004153
:1054D00043F1000300F0004043EA00007047F9D3B5
:1054E0005708DAE746EA064613F1400F4FEA164638
:1054F0001FDD13F1200FDFBF16430A4600212033C2
:105500005B42C8D0C3F1200746EA064602FA07F715
:105510004FEA164646EA0706C3F1200722FA03F2CD
:1055200001FA07F721FA03F14FF0000342EA0702FC
:10553000B1E746EA020646EA06464FEA164646EA5A
:105540000106BCBF46EA0646360C4FF000034FF09A
:1055500000024FF000019EE72DE9C048934630B4A9
:1055600091E8380007C831EA400C48BF34EA430CE0
:1055700003D5FFF7F2FDFFF78CFFF0BCBDE8008814
:105580002DE9C048934630B491E8380007C810F0C0
:10559000804F08BF13F0804F03D100F005F8FFF7EC
:1055A00078FFF0BCBDE8008820F07F4780EA030068
:1055B00023F07F4C07EB0C03A3F57C5300F0004075
:1055C000A3F1FE0392F0000F00F0B38095F0000FFE
:1055D00000F077802DE901494FEA11404FEA144667
:1055E00021EA004800FB06FC24EA064708FB06F611
:1055F00007FB08F800FB07F718EB06484CEB164CC6
:105600004FEA124B18EB07484FEA15464CEB174090
:1056100022EA0B4E0BFB06FC25EA06470EFB06F6BC
:1056200007FB0EFE0BFB07F71EEB064E4CEB164C72
:105630004FF000061EEB074E4CEB174B18EB0B0818
:1056400040F1000018EB0E0B58EB000840F1000091
:105650008F1A4FF000013CBFC943661B14BFB5EB66
:10566000040C00213CBFC943F61B4FEA17444EEA25
:105670008E0E27EA04454FEA1C4704FB07622CEA1A
:10568000074C05FB07F70CFB05F604FB0CFC16EBBF
:10569000074642EB174216EB0C4642EB1C421BEB53
:1056A000060658EB0202414146EA9E0601D5BDE8D6
:1056B0000189B619524141EB0101A3F10103BDE893
:1056C00001894FEA14454FEA114724EA054621EAC9
:1056D000074C05FB07F406FB07F70CFB06F105FB7F
:1056E0000CFC11EB074144EB17444FEA124711EB56
:1056F0000C4144EB1C4422EA074C05FB07F206FB75
:1057000007F70CFB06F605FB0CFC16EB074642EB15
:10571000174216EB0C4642EB1C456A1854F1000187
:1057200048BF7047B619524141EB0101A3F1010393
:10573000704795F0000F37D04FEA11424FEA1447F7
:1057400021EA024624EA074C02FB07F106FB07F7B1
:105750000CFB06F402FB0CFC14EB074441EB174175
:105760004FEA154714EB0C4441EB1C4125EA074C6A
:1057700002FB07F506FB07F70CFB06F602FB0CFC29
:1057800016EB074645EB174516EB0C4645EB1C425E
:10579000121951F1000148BF7047B619524141EB4F
:1057A0000101A3F1010370474FEA14454FEA114785
:1057B00024EA054621EA074C05FB07F106FB07F73B
:1057C0000CFB06F24FF0000605FB0CFC12EB074247
:1057D00041EB174112EB0C4251EB1C4148BF7047A3
:1057E000921841EB0101A3F101037047490050EA0F
:1057F000C12018BF04204A0D18BF40F0010040F23C
:10580000FF72B2EB515F08BF40F00200012808BFF1
:105810000520704710B500290AD00878002807D065
:1058200005487844FFF7DAFB002801D0002010BDBE
:105830000248784410BD00009A1000009210000049
:1058400010B500290AD00878002807D00548784408
:10585000FFF7C4FB002801D0002010BD02487844A7
:1058600010BD00008A1000008210000021F00042EC
:10587000A2F16052B2F5801F01F0004328BFD2F1BF
:105880007F6C0BD95FEA001C43EAC20242EB507006
:1058900018BF704728BF20F001007047B2F5801F85
:1058A000BCBF184670474FEA410C1CF5001F02D2DE
:1058B000084600F0D9BE70B500F0B2FA00000089C9
:1058C000FFF7F6BF4FF00040A0F5800070470000E2
:1058D00010B591EA030F48BF83F0004300F1FC824A
:1058E000841A71EB030E05D2121943EB0E03001B51
:1058F00061EB0E01DFF820C14FEA1154A4EB135EF7
:105900001CEA430F18BF9CEA445F71D023EA0C03E2
:10591000DEF1200C21EA045143F4801332D322FA41
:105920000EFC10EB0C0023FA0EFC41EB0C01CEF147
:10593000200C03FA0CFC10EB0C0051F10001B1F546
:10594000801FCEF1200C32D201EB0451BDE8104093
:1059500012FA0CF258BF7047401C38BF5FEA42028F
:1059600018BF7047002814BF20F0010041F100016A
:105970004FEA410313F5001F38BF7047A1F1C04142
:1059800000F09CBA012A43EB0302AEF1200EDEF1D7
:105990001F0C32BF4FF0000C23FA0EF310EB030084
:1059A00041EB0451B4EB115FD0D0A1EB045101F5F0
:1059B0008011490801EB0451BDE810405FEA300056
:1059C0000CD350F1000038BF12FA0CFC06D1C9E725
:1059D000401C38BF5FEA4202CAD1C3E74FEA410325
:1059E00013F5001F38BF7047A1F1C04100F066BA3F
:1059F0009CEA445F08D0BDE8104011EA5C0F04BF88
:105A000001F0004100207047BDE8104070B500F083
:105A100007FA00BF64FBBE3E0000E0FF2DE9C04175
:105A200030B4DFF8A0C23CEA111418BF3CEA1314EA
:105A300000F0EC8081EA03051CEA111444EAD574F5
:105A400018BF1CEA131500F0C780A4EB05044FF043
:105A5000004545EAC12145EAC32341EA505143EAE2
:105A6000525304F17F74994204F500344FEAC02088
:105A70004FEAC22208BF904200F09C804FEA1365B3
:105A80000FF24016765D4FEA134506FB05F7C7F1A6
:105A9000807706FB07F74FEAD737A7FB0368764204
:105AA000C8F58038A7FB06CE38BFA8F1010807FB70
:105AB00008E64FF0000EA6FB028CE6FB03CEDCF1FD
:105AC000000CCEF1004E38BFAEF1010EA6FB0C5813
:105AD0004FF000074FF00005E6FB0E87A1FB08C65C
